{
	"contractName": "L2OutputOracle",
	"address": "0xe633edDbD4C27daDB314256B92405E6E06E85519",
	"abi": [
		{
			"inputs": [
				{
					"internalType": "uint256",
					"name": "_submissionInterval",
					"type": "uint256"
				},
				{
					"internalType": "uint256",
					"name": "_startingBlockNumber",
					"type": "uint256"
				},
				{
					"internalType": "uint256",
					"name": "_startingTimestamp",
					"type": "uint256"
				},
				{
					"internalType": "uint256",
					"name": "_l2BlockTime",
					"type": "uint256"
				}
			],
			"stateMutability": "nonpayable",
			"type": "constructor"
		},
		{
			"anonymous": false,
			"inputs": [
				{
					"indexed": false,
					"internalType": "uint8",
					"name": "version",
					"type": "uint8"
				}
			],
			"name": "Initialized",
			"type": "event"
		},
		{
			"anonymous": false,
			"inputs": [
				{
					"indexed": true,
					"internalType": "bytes32",
					"name": "outputRoot",
					"type": "bytes32"
				},
				{
					"indexed": true,
					"internalType": "uint256",
					"name": "l1Timestamp",
					"type": "uint256"
				},
				{
					"indexed": true,
					"internalType": "uint256",
					"name": "l2BlockNumber",
					"type": "uint256"
				}
			],
			"name": "OutputDeleted",
			"type": "event"
		},
		{
			"anonymous": false,
			"inputs": [
				{
					"indexed": true,
					"internalType": "bytes32",
					"name": "outputRoot",
					"type": "bytes32"
				},
				{
					"indexed": true,
					"internalType": "uint256",
					"name": "l1Timestamp",
					"type": "uint256"
				},
				{
					"indexed": true,
					"internalType": "uint256",
					"name": "l2BlockNumber",
					"type": "uint256"
				}
			],
			"name": "OutputProposed",
			"type": "event"
		},
		{
			"anonymous": false,
			"inputs": [
				{
					"indexed": true,
					"internalType": "address",
					"name": "previousOwner",
					"type": "address"
				},
				{
					"indexed": true,
					"internalType": "address",
					"name": "newOwner",
					"type": "address"
				}
			],
			"name": "OwnershipTransferred",
			"type": "event"
		},
		{
			"anonymous": false,
			"inputs": [
				{
					"indexed": true,
					"internalType": "address",
					"name": "previousProposer",
					"type": "address"
				},
				{
					"indexed": true,
					"internalType": "address",
					"name": "newProposer",
					"type": "address"
				}
			],
			"name": "ProposerChanged",
			"type": "event"
		},
		{
			"inputs": [],
			"name": "L2_BLOCK_TIME",
			"outputs": [
				{
					"internalType": "uint256",
					"name": "",
					"type": "uint256"
				}
			],
			"stateMutability": "view",
			"type": "function"
		},
		{
			"inputs": [],
			"name": "STARTING_BLOCK_NUMBER",
			"outputs": [
				{
					"internalType": "uint256",
					"name": "",
					"type": "uint256"
				}
			],
			"stateMutability": "view",
			"type": "function"
		},
		{
			"inputs": [],
			"name": "STARTING_TIMESTAMP",
			"outputs": [
				{
					"internalType": "uint256",
					"name": "",
					"type": "uint256"
				}
			],
			"stateMutability": "view",
			"type": "function"
		},
		{
			"inputs": [],
			"name": "SUBMISSION_INTERVAL",
			"outputs": [
				{
					"internalType": "uint256",
					"name": "",
					"type": "uint256"
				}
			],
			"stateMutability": "view",
			"type": "function"
		},
		{
			"inputs": [
				{
					"internalType": "address",
					"name": "_newProposer",
					"type": "address"
				}
			],
			"name": "changeProposer",
			"outputs": [],
			"stateMutability": "nonpayable",
			"type": "function"
		},
		{
			"inputs": [
				{
					"internalType": "uint256",
					"name": "_l2BlockNumber",
					"type": "uint256"
				}
			],
			"name": "computeL2Timestamp",
			"outputs": [
				{
					"internalType": "uint256",
					"name": "",
					"type": "uint256"
				}
			],
			"stateMutability": "view",
			"type": "function"
		},
		{
			"inputs": [
				{
					"components": [
						{
							"internalType": "bytes32",
							"name": "outputRoot",
							"type": "bytes32"
						},
						{
							"internalType": "uint256",
							"name": "timestamp",
							"type": "uint256"
						}
					],
					"internalType": "struct Types.OutputProposal",
					"name": "_proposal",
					"type": "tuple"
				}
			],
			"name": "deleteL2Output",
			"outputs": [],
			"stateMutability": "nonpayable",
			"type": "function"
		},
		{
			"inputs": [
				{
					"internalType": "uint256",
					"name": "_l2BlockNumber",
					"type": "uint256"
				}
			],
			"name": "getL2Output",
			"outputs": [
				{
					"components": [
						{
							"internalType": "bytes32",
							"name": "outputRoot",
							"type": "bytes32"
						},
						{
							"internalType": "uint256",
							"name": "timestamp",
							"type": "uint256"
						}
					],
					"internalType": "struct Types.OutputProposal",
					"name": "",
					"type": "tuple"
				}
			],
			"stateMutability": "view",
			"type": "function"
		},
		{
			"inputs": [
				{
					"internalType": "bytes32",
					"name": "_genesisL2Output",
					"type": "bytes32"
				},
				{
					"internalType": "address",
					"name": "_proposer",
					"type": "address"
				},
				{
					"internalType": "address",
					"name": "_owner",
					"type": "address"
				}
			],
			"name": "initialize",
			"outputs": [],
			"stateMutability": "nonpayable",
			"type": "function"
		},
		{
			"inputs": [],
			"name": "latestBlockNumber",
			"outputs": [
				{
					"internalType": "uint256",
					"name": "",
					"type": "uint256"
				}
			],
			"stateMutability": "view",
			"type": "function"
		},
		{
			"inputs": [],
			"name": "nextBlockNumber",
			"outputs": [
				{
					"internalType": "uint256",
					"name": "",
					"type": "uint256"
				}
			],
			"stateMutability": "view",
			"type": "function"
		},
		{
			"inputs": [],
			"name": "owner",
			"outputs": [
				{
					"internalType": "address",
					"name": "",
					"type": "address"
				}
			],
			"stateMutability": "view",
			"type": "function"
		},
		{
			"inputs": [
				{
					"internalType": "bytes32",
					"name": "_outputRoot",
					"type": "bytes32"
				},
				{
					"internalType": "uint256",
					"name": "_l2BlockNumber",
					"type": "uint256"
				},
				{
					"internalType": "bytes32",
					"name": "_l1Blockhash",
					"type": "bytes32"
				},
				{
					"internalType": "uint256",
					"name": "_l1BlockNumber",
					"type": "uint256"
				}
			],
			"name": "proposeL2Output",
			"outputs": [],
			"stateMutability": "payable",
			"type": "function"
		},
		{
			"inputs": [],
			"name": "proposer",
			"outputs": [
				{
					"internalType": "address",
					"name": "",
					"type": "address"
				}
			],
			"stateMutability": "view",
			"type": "function"
		},
		{
			"inputs": [],
			"name": "renounceOwnership",
			"outputs": [],
			"stateMutability": "nonpayable",
			"type": "function"
		},
		{
			"inputs": [
				{
					"internalType": "address",
					"name": "_newOwner",
					"type": "address"
				}
			],
			"name": "transferOwnership",
			"outputs": [],
			"stateMutability": "nonpayable",
			"type": "function"
		},
		{
			"inputs": [],
			"name": "version",
			"outputs": [
				{
					"internalType": "string",
					"name": "",
					"type": "string"
				}
			],
			"stateMutability": "view",
			"type": "function"
		}
	],
	"transactionHash": "0x56798cbf1538318a64c8a7c94443e9be330b645fba2d5eee95a325e1035d25de",
	"solcInputHash": "effffa15b03d887d1411fcd21e9dda8a",
	"numDeployments": 1,
	"args": [
		20,
		0,
		0,
		2
	],
	"bytecode": "0x61016060405234801561001157600080fd5b50604051611ccd380380611ccd83398101604081905261003091610059565b6000608081905260a052600160c05260e09390935261010091909152610120526101405261008f565b6000806000806080858703121561006f57600080fd5b505082516020840151604085015160609095015191969095509092509050565b60805160a05160c05160e051610100516101205161014051611b9761013660003960008181610124015261123001526000818161018d01526112890152600081816101d701528181610aa601528181610f220152818161101e0152818161115a015261125401526000818161020b015281816105c101528181610ffa0152818161105d01526112b7015260006106460152600061061d015260006105f40152611b976000f3fe60806040526004361061010d5760003560e01c806372d5fe21116100a5578063a25ae55711610074578063d1de856c11610059578063d1de856c1461036b578063dcec33481461038b578063f2fde38b146103a057600080fd5b8063a25ae55714610303578063a8e4fb901461033e57600080fd5b806372d5fe211461026457806388b117b3146102845780638da5cb5b146102a45780639aaab648146102f057600080fd5b80634ab65d73116100e15780634ab65d73146101c5578063529933df146101f957806354fd4d501461022d578063715018a61461024f57600080fd5b80622134cc14610112578063093b3d901461015957806320e9fcd41461017b5780634599c788146101af575b600080fd5b34801561011e57600080fd5b506101467f000000000000000000000000000000000000000000000000000000000000000081565b6040519081526020015b60405180910390f35b34801561016557600080fd5b506101796101743660046117f6565b6103c0565b005b34801561018757600080fd5b506101467f000000000000000000000000000000000000000000000000000000000000000081565b3480156101bb57600080fd5b5061014660665481565b3480156101d157600080fd5b506101467f000000000000000000000000000000000000000000000000000000000000000081565b34801561020557600080fd5b506101467f000000000000000000000000000000000000000000000000000000000000000081565b34801561023957600080fd5b506102426105ed565b6040516101509190611898565b34801561025b57600080fd5b50610179610690565b34801561027057600080fd5b5061017961027f366004611912565b6106a4565b34801561029057600080fd5b5061017961029f366004611934565b6108b0565b3480156102b057600080fd5b5060335473ffffffffffffffffffffffffffffffffffffffff165b60405173ffffffffffffffffffffffffffffffffffffffff9091168152602001610150565b6101796102fe366004611970565b610b63565b34801561030f57600080fd5b5061032361031e3660046119a2565b610f0c565b60408051825181526020928301519281019290925201610150565b34801561034a57600080fd5b506065546102cb9073ffffffffffffffffffffffffffffffffffffffff1681565b34801561037757600080fd5b506101466103863660046119a2565b611156565b34801561039757600080fd5b506101466112b3565b3480156103ac57600080fd5b506101796103bb366004611912565b6112e8565b6103c86113a7565b60665460009081526067602090815260409182902082518084019093528054808452600190910154918301919091528251146104b1576040517f08c379a000000000000000000000000000000000000000000000000000000000815260206004820152604f60248201527f4c324f75747075744f7261636c653a206f757470757420726f6f7420746f206460448201527f656c65746520646f6573206e6f74206d6174636820746865206c61746573742060648201527f6f75747075742070726f706f73616c0000000000000000000000000000000000608482015260a4015b60405180910390fd5b806020015182602001511461056e576040517f08c379a000000000000000000000000000000000000000000000000000000000815260206004820152604d60248201527f4c324f75747075744f7261636c653a2074696d657374616d7020746f2064656c60448201527f65746520646f6573206e6f74206d6174636820746865206c6174657374206f7560648201527f747075742070726f706f73616c00000000000000000000000000000000000000608482015260a4016104a8565b606654602082015182516040517f11e942315215fbc11bf574b22ca610d001e704d870a2307833c188d31600b5c690600090a460668054600090815260676020526040812081815560010155546105e6907f0000000000000000000000000000000000000000000000000000000000000000906119ea565b6066555050565b60606106187f0000000000000000000000000000000000000000000000000000000000000000611428565b6106417f0000000000000000000000000000000000000000000000000000000000000000611428565b61066a7f0000000000000000000000000000000000000000000000000000000000000000611428565b60405160200161067c93929190611a01565b604051602081830303815290604052905090565b6106986113a7565b6106a2600061155d565b565b6106ac6113a7565b73ffffffffffffffffffffffffffffffffffffffff811661074f576040517f08c379a000000000000000000000000000000000000000000000000000000000815260206004820152603760248201527f4c324f75747075744f7261636c653a206e65772070726f706f7365722063616e60448201527f6e6f7420626520746865207a65726f206164647265737300000000000000000060648201526084016104a8565b60335473ffffffffffffffffffffffffffffffffffffffff1673ffffffffffffffffffffffffffffffffffffffff168173ffffffffffffffffffffffffffffffffffffffff1603610822576040517f08c379a000000000000000000000000000000000000000000000000000000000815260206004820152603860248201527f4c324f75747075744f7261636c653a2070726f706f7365722063616e6e6f742060448201527f6265207468652073616d6520617320746865206f776e6572000000000000000060648201526084016104a8565b60655460405173ffffffffffffffffffffffffffffffffffffffff8084169216907f3d7728dc2838bb794606bd89f5a37930830b32060f69ee929bbfc59b669024dd90600090a3606580547fffffffffffffffffffffffff00000000000000000000000000000000000000001673ffffffffffffffffffffffffffffffffffffffff92909216919091179055565b600054610100900460ff16158080156108d05750600054600160ff909116105b806108ea5750303b1580156108ea575060005460ff166001145b610976576040517f08c379a000000000000000000000000000000000000000000000000000000000815260206004820152602e60248201527f496e697469616c697a61626c653a20636f6e747261637420697320616c72656160448201527f647920696e697469616c697a656400000000000000000000000000000000000060648201526084016104a8565b600080547fffffffffffffffffffffffffffffffffffffffffffffffffffffffffffffff0016600117905580156109d457600080547fffffffffffffffffffffffffffffffffffffffffffffffffffffffffffff00ff166101001790555b8173ffffffffffffffffffffffffffffffffffffffff168373ffffffffffffffffffffffffffffffffffffffff1603610a8f576040517f08c379a000000000000000000000000000000000000000000000000000000000815260206004820152603860248201527f4c324f75747075744f7261636c653a2070726f706f7365722063616e6e6f742060448201527f6265207468652073616d6520617320746865206f776e6572000000000000000060648201526084016104a8565b6040805180820182528581524260208083019182527f0000000000000000000000000000000000000000000000000000000000000000600081815260679092529390209151825551600190910155606655610ae86115d4565b610af1836106a4565b610afa8261155d565b8015610b5d57600080547fffffffffffffffffffffffffffffffffffffffffffffffffffffffffffff00ff169055604051600181527f7f26b83ff96e1f2b6a682f133852f6798a09c465da95921460cefb38474024989060200160405180910390a15b50505050565b60655473ffffffffffffffffffffffffffffffffffffffff163314610c0a576040517f08c379a000000000000000000000000000000000000000000000000000000000815260206004820152603760248201527f4c324f75747075744f7261636c653a2066756e6374696f6e2063616e206f6e6c60448201527f792062652063616c6c65642062792070726f706f73657200000000000000000060648201526084016104a8565b610c126112b3565b8314610cc6576040517f08c379a000000000000000000000000000000000000000000000000000000000815260206004820152604860248201527f4c324f75747075744f7261636c653a20626c6f636b206e756d626572206d757360448201527f7420626520657175616c20746f206e65787420657870656374656420626c6f6360648201527f6b206e756d626572000000000000000000000000000000000000000000000000608482015260a4016104a8565b42610cd084611156565b10610d5d576040517f08c379a000000000000000000000000000000000000000000000000000000000815260206004820152603660248201527f4c324f75747075744f7261636c653a2063616e6e6f742070726f706f7365204c60448201527f32206f757470757420696e20746865206675747572650000000000000000000060648201526084016104a8565b83610dea576040517f08c379a000000000000000000000000000000000000000000000000000000000815260206004820152603a60248201527f4c324f75747075744f7261636c653a204c32206f75747075742070726f706f7360448201527f616c2063616e6e6f7420626520746865207a65726f206861736800000000000060648201526084016104a8565b8115610ea65781814014610ea6576040517f08c379a000000000000000000000000000000000000000000000000000000000815260206004820152604860248201527f4c324f75747075744f7261636c653a20626c6f636b6861736820646f6573206e60448201527f6f74206d6174636820746865206861736820617420746865206578706563746560648201527f6420686569676874000000000000000000000000000000000000000000000000608482015260a4016104a8565b6040805180820182528581524260208083018281526000888152606790925284822093518455516001909301929092556066869055915185929187917fc120f5e881491e6e212befa39e36b8f57d5eca31915f2e5d60a420f418caa6df9190a450505050565b60408051808201909152600080825260208201527f0000000000000000000000000000000000000000000000000000000000000000821015610ff6576040517f08c379a000000000000000000000000000000000000000000000000000000000815260206004820152604b60248201527f4c324f75747075744f7261636c653a20626c6f636b206e756d6265722063616e60448201527f6e6f74206265206c657373207468616e20746865207374617274696e6720626c60648201527f6f636b206e756d6265722e000000000000000000000000000000000000000000608482015260a4016104a8565b60007f00000000000000000000000000000000000000000000000000000000000000006110437f0000000000000000000000000000000000000000000000000000000000000000856119ea565b61104d9190611aa6565b90506000811561109057611081827f00000000000000000000000000000000000000000000000000000000000000006119ea565b61108b9085611aba565b611092565b835b60008181526067602090815260409182902082518084019093528054808452600190910154918301919091529192509061114e576040517f08c379a000000000000000000000000000000000000000000000000000000000815260206004820152603660248201527f4c324f75747075744f7261636c653a204e6f206f757470757420666f756e642060448201527f666f72207468617420626c6f636b206e756d6265722e0000000000000000000060648201526084016104a8565b949350505050565b60007f000000000000000000000000000000000000000000000000000000000000000082101561122e576040517f08c379a000000000000000000000000000000000000000000000000000000000815260206004820152605360248201527f4c324f75747075744f7261636c653a20626c6f636b206e756d626572206d757360448201527f742062652067726561746572207468616e206f7220657175616c20746f20737460648201527f617274696e6720626c6f636b206e756d62657200000000000000000000000000608482015260a4016104a8565b7f00000000000000000000000000000000000000000000000000000000000000006112797f0000000000000000000000000000000000000000000000000000000000000000846119ea565b6112839190611ad2565b6112ad907f0000000000000000000000000000000000000000000000000000000000000000611aba565b92915050565b60007f00000000000000000000000000000000000000000000000000000000000000006066546112e39190611aba565b905090565b6112f06113a7565b60655473ffffffffffffffffffffffffffffffffffffffff9081169082160361139b576040517f08c379a000000000000000000000000000000000000000000000000000000000815260206004820152603860248201527f4c324f75747075744f7261636c653a206f776e65722063616e6e6f742062652060448201527f7468652073616d65206173207468652070726f706f736572000000000000000060648201526084016104a8565b6113a481611673565b50565b60335473ffffffffffffffffffffffffffffffffffffffff1633146106a2576040517f08c379a000000000000000000000000000000000000000000000000000000000815260206004820181905260248201527f4f776e61626c653a2063616c6c6572206973206e6f7420746865206f776e657260448201526064016104a8565b60608160000361146b57505060408051808201909152600181527f3000000000000000000000000000000000000000000000000000000000000000602082015290565b8160005b8115611495578061147f81611b0f565b915061148e9050600a83611b47565b915061146f565b60008167ffffffffffffffff8111156114b0576114b06117c7565b6040519080825280601f01601f1916602001820160405280156114da576020820181803683370190505b5090505b841561114e576114ef6001836119ea565b91506114fc600a86611aa6565b611507906030611aba565b60f81b81838151811061151c5761151c611b5b565b60200101907effffffffffffffffffffffffffffffffffffffffffffffffffffffffffffff1916908160001a905350611556600a86611b47565b94506114de565b6033805473ffffffffffffffffffffffffffffffffffffffff8381167fffffffffffffffffffffffff0000000000000000000000000000000000000000831681179093556040519116919082907f8be0079c531659141344cd1fd0a4f28419497f9722a3daafe3b4186f6b6457e090600090a35050565b600054610100900460ff1661166b576040517f08c379a000000000000000000000000000000000000000000000000000000000815260206004820152602b60248201527f496e697469616c697a61626c653a20636f6e7472616374206973206e6f74206960448201527f6e697469616c697a696e6700000000000000000000000000000000000000000060648201526084016104a8565b6106a2611727565b61167b6113a7565b73ffffffffffffffffffffffffffffffffffffffff811661171e576040517f08c379a000000000000000000000000000000000000000000000000000000000815260206004820152602660248201527f4f776e61626c653a206e6577206f776e657220697320746865207a65726f206160448201527f646472657373000000000000000000000000000000000000000000000000000060648201526084016104a8565b6113a48161155d565b600054610100900460ff166117be576040517f08c379a000000000000000000000000000000000000000000000000000000000815260206004820152602b60248201527f496e697469616c697a61626c653a20636f6e7472616374206973206e6f74206960448201527f6e697469616c697a696e6700000000000000000000000000000000000000000060648201526084016104a8565b6106a23361155d565b7f4e487b7100000000000000000000000000000000000000000000000000000000600052604160045260246000fd5b60006040828403121561180857600080fd5b6040516040810181811067ffffffffffffffff82111715611852577f4e487b7100000000000000000000000000000000000000000000000000000000600052604160045260246000fd5b604052823581526020928301359281019290925250919050565b60005b8381101561188757818101518382015260200161186f565b83811115610b5d5750506000910152565b60208152600082518060208401526118b781604085016020870161186c565b601f017fffffffffffffffffffffffffffffffffffffffffffffffffffffffffffffffe0169190910160400192915050565b803573ffffffffffffffffffffffffffffffffffffffff8116811461190d57600080fd5b919050565b60006020828403121561192457600080fd5b61192d826118e9565b9392505050565b60008060006060848603121561194957600080fd5b83359250611959602085016118e9565b9150611967604085016118e9565b90509250925092565b6000806000806080858703121561198657600080fd5b5050823594602084013594506040840135936060013592509050565b6000602082840312156119b457600080fd5b5035919050565b7f4e487b7100000000000000000000000000000000000000000000000000000000600052601160045260246000fd5b6000828210156119fc576119fc6119bb565b500390565b60008451611a1381846020890161186c565b80830190507f2e000000000000000000000000000000000000000000000000000000000000008082528551611a4f816001850160208a0161186c565b60019201918201528351611a6a81600284016020880161186c565b0160020195945050505050565b7f4e487b7100000000000000000000000000000000000000000000000000000000600052601260045260246000fd5b600082611ab557611ab5611a77565b500690565b60008219821115611acd57611acd6119bb565b500190565b6000817fffffffffffffffffffffffffffffffffffffffffffffffffffffffffffffffff0483118215151615611b0a57611b0a6119bb565b500290565b60007fffffffffffffffffffffffffffffffffffffffffffffffffffffffffffffffff8203611b4057611b406119bb565b5060010190565b600082611b5657611b56611a77565b500490565b7f4e487b7100000000000000000000000000000000000000000000000000000000600052603260045260246000fdfea164736f6c634300080f000a",
	"deployedBytecode": "0x60806040526004361061005e5760003560e01c80635c60da1b116100435780635c60da1b146100be5780638f283970146100f8578063f851a440146101185761006d565b80633659cfe6146100755780634f1ef286146100955761006d565b3661006d5761006b61012d565b005b61006b61012d565b34801561008157600080fd5b5061006b6100903660046106d9565b610224565b6100a86100a33660046106f4565b610296565b6040516100b59190610777565b60405180910390f35b3480156100ca57600080fd5b506100d3610419565b60405173ffffffffffffffffffffffffffffffffffffffff90911681526020016100b5565b34801561010457600080fd5b5061006b6101133660046106d9565b6104b0565b34801561012457600080fd5b506100d3610517565b60006101577f360894a13ba1a3210667c828492db98dca3e2076cc3735a920a3ca505d382bbc5490565b905073ffffffffffffffffffffffffffffffffffffffff8116610201576040517f08c379a000000000000000000000000000000000000000000000000000000000815260206004820152602560248201527f50726f78793a20696d706c656d656e746174696f6e206e6f7420696e6974696160448201527f6c697a656400000000000000000000000000000000000000000000000000000060648201526084015b60405180910390fd5b3660008037600080366000845af43d6000803e8061021e573d6000fd5b503d6000f35b7fb53127684a568b3173ae13b9f8a6016e243e63b6e8ee1178d6a717850b5d61035473ffffffffffffffffffffffffffffffffffffffff163373ffffffffffffffffffffffffffffffffffffffff16148061027d575033155b1561028e5761028b816105a3565b50565b61028b61012d565b60606102c07fb53127684a568b3173ae13b9f8a6016e243e63b6e8ee1178d6a717850b5d61035490565b73ffffffffffffffffffffffffffffffffffffffff163373ffffffffffffffffffffffffffffffffffffffff1614806102f7575033155b1561040a57610305846105a3565b6000808573ffffffffffffffffffffffffffffffffffffffff16858560405161032f9291906107ea565b600060405180830381855af49150503d806000811461036a576040519150601f19603f3d011682016040523d82523d6000602084013e61036f565b606091505b509150915081610401576040517f08c379a000000000000000000000000000000000000000000000000000000000815260206004820152603960248201527f50726f78793a2064656c656761746563616c6c20746f206e657720696d706c6560448201527f6d656e746174696f6e20636f6e7472616374206661696c65640000000000000060648201526084016101f8565b91506104129050565b61041261012d565b9392505050565b60006104437fb53127684a568b3173ae13b9f8a6016e243e63b6e8ee1178d6a717850b5d61035490565b73ffffffffffffffffffffffffffffffffffffffff163373ffffffffffffffffffffffffffffffffffffffff16148061047a575033155b156104a557507f360894a13ba1a3210667c828492db98dca3e2076cc3735a920a3ca505d382bbc5490565b6104ad61012d565b90565b7fb53127684a568b3173ae13b9f8a6016e243e63b6e8ee1178d6a717850b5d61035473ffffffffffffffffffffffffffffffffffffffff163373ffffffffffffffffffffffffffffffffffffffff161480610509575033155b1561028e5761028b8161060b565b60006105417fb53127684a568b3173ae13b9f8a6016e243e63b6e8ee1178d6a717850b5d61035490565b73ffffffffffffffffffffffffffffffffffffffff163373ffffffffffffffffffffffffffffffffffffffff161480610578575033155b156104a557507fb53127684a568b3173ae13b9f8a6016e243e63b6e8ee1178d6a717850b5d61035490565b7f360894a13ba1a3210667c828492db98dca3e2076cc3735a920a3ca505d382bbc81905560405173ffffffffffffffffffffffffffffffffffffffff8216907fbc7cd75a20ee27fd9adebab32041f755214dbc6bffa90cc0225b39da2e5c2d3b90600090a250565b60006106357fb53127684a568b3173ae13b9f8a6016e243e63b6e8ee1178d6a717850b5d61035490565b7fb53127684a568b3173ae13b9f8a6016e243e63b6e8ee1178d6a717850b5d61038390556040805173ffffffffffffffffffffffffffffffffffffffff8084168252851660208201529192507f7e644d79422f17c01e4894b5f4f588d331ebfa28653d42ae832dc59e38c9798f910160405180910390a15050565b803573ffffffffffffffffffffffffffffffffffffffff811681146106d457600080fd5b919050565b6000602082840312156106eb57600080fd5b610412826106b0565b60008060006040848603121561070957600080fd5b610712846106b0565b9250602084013567ffffffffffffffff8082111561072f57600080fd5b818601915086601f83011261074357600080fd5b81358181111561075257600080fd5b87602082850101111561076457600080fd5b6020830194508093505050509250925092565b600060208083528351808285015260005b818110156107a457858101830151858201604001528201610788565b818111156107b6576000604083870101525b50601f017fffffffffffffffffffffffffffffffffffffffffffffffffffffffffffffffe016929092016040019392505050565b818382376000910190815291905056fea26469706673582212200216099710a39ba669241f500daaab663209453b368ac65b50d253a46152ae8364736f6c634300080f0033",
	"devdoc": {
		"custom:proxied": "@title L2OutputOracle",
		"events": {
			"OutputDeleted(bytes32,uint256,uint256)": {
				"params": {
					"l1Timestamp": "The L1 timestamp when proposed.",
					"l2BlockNumber": "The L2 block number of the output root.",
					"outputRoot": "The output root."
				}
			},
			"OutputProposed(bytes32,uint256,uint256)": {
				"params": {
					"l1Timestamp": "The L1 timestamp when proposed.",
					"l2BlockNumber": "The L2 block number of the output root.",
					"outputRoot": "The output root."
				}
			},
			"ProposerChanged(address,address)": {
				"params": {
					"newProposer": "The new proposer address.",
					"previousProposer": "The previous proposer address."
				}
			}
		},
		"kind": "dev",
		"methods": {
			"computeL2Timestamp(uint256)": {
				"params": {
					"_l2BlockNumber": "The L2 block number of the target block."
				}
			},
			"constructor": {
				"custom:semver": "0.0.1",
				"params": {
					"_l2BlockTime": "The time per L2 block, in seconds.",
					"_startingBlockNumber": "The number of the first L2 block.",
					"_startingTimestamp": "The timestamp of the first L2 block.",
					"_submissionInterval": "Interval in blocks at which checkpoints must be submitted."
				}
			},
			"deleteL2Output((bytes32,uint256))": {
				"params": {
					"_proposal": "Represents the output proposal to delete"
				}
			},
			"getL2Output(uint256)": {
				"params": {
					"_l2BlockNumber": "The L2 block number of the target block."
				}
			},
			"initialize(bytes32,address,address)": {
				"params": {
					"_genesisL2Output": "The initial L2 output of the L2 chain.",
					"_owner": "The address of the owner.",
					"_proposer": "The address of the proposer."
				}
			},
			"owner()": {
				"details": "Returns the address of the current owner."
			},
			"proposeL2Output(bytes32,uint256,bytes32,uint256)": {
				"params": {
					"_l1BlockNumber": "The block number with the specified block hash.",
					"_l1Blockhash": "A block hash which must be included in the current chain.",
					"_l2BlockNumber": "The L2 block number that resulted in _outputRoot.",
					"_outputRoot": "The L2 output of the checkpoint block."
				}
			},
			"renounceOwnership()": {
				"details": "Leaves the contract without owner. It will not be possible to call `onlyOwner` functions anymore. Can only be called by the current owner. NOTE: Renouncing ownership will leave the contract without an owner, thereby removing any functionality that is only available to the owner."
			},
			"version()": {
				"returns": {
					"_0": "Semver contract version as a string."
				}
			}
		},
		"version": 1
	},
	"userdoc": {
		"events": {
			"OutputDeleted(bytes32,uint256,uint256)": {
				"notice": "Emitted when an output is deleted."
			},
			"OutputProposed(bytes32,uint256,uint256)": {
				"notice": "Emitted when an output is proposed."
			},
			"ProposerChanged(address,address)": {
				"notice": "Emitted when the proposer address is changed."
			}
		},
		"kind": "user",
		"methods": {
			"L2_BLOCK_TIME()": {
				"notice": "The time between L2 blocks in seconds."
			},
			"STARTING_BLOCK_NUMBER()": {
				"notice": "The number of the first L2 block recorded in this contract."
			},
			"STARTING_TIMESTAMP()": {
				"notice": "The timestamp of the first L2 block recorded in this contract."
			},
			"SUBMISSION_INTERVAL()": {
				"notice": "The interval in L2 blocks at which checkpoints must be submitted."
			},
			"changeProposer(address)": {
				"notice": "Transfers the proposer role to a new account (`newProposer`).         Can only be called by the current owner."
			},
			"computeL2Timestamp(uint256)": {
				"notice": "Returns the L2 timestamp corresponding to a given L2 block number.         If the L2 block number provided is between checkpoints, this function will return the         timestamp of the previous checkpoint."
			},
			"deleteL2Output((bytes32,uint256))": {
				"notice": "Deletes the most recent output. This is used to remove the most recent output in the         event that an erreneous output is submitted. It can only be called by the contract's         owner, not the proposer. Longer term, this should be replaced with a more robust         mechanism which will allow deletion of proposals shown to be invalid by a fault         proof."
			},
			"getL2Output(uint256)": {
				"notice": "Returns the L2 output proposal associated with a target L2 block number. If the         L2 block number provided is between checkpoints, this function will rerutn the next         proposal for the next checkpoint.         Reverts if the output proposal is either not found, or predates         the STARTING_BLOCK_NUMBER."
			},
			"initialize(bytes32,address,address)": {
				"notice": "Initializer."
			},
			"latestBlockNumber()": {
				"notice": "The number of the most recent L2 block recorded in this contract."
			},
			"nextBlockNumber()": {
				"notice": "Computes the block number of the next L2 block that needs to be checkpointed."
			},
			"proposeL2Output(bytes32,uint256,bytes32,uint256)": {
				"notice": "Accepts an outputRoot and the timestamp of the corresponding L2 block. The         timestamp must be equal to the current value returned by `nextTimestamp()` in order         to be accepted. This function may only be called by the Proposer."
			},
			"proposer()": {
				"notice": "The address of the proposer;"
			},
			"transferOwnership(address)": {
				"notice": "Overrides the standard implementation of transferOwnership         to add the requirement that the owner and proposer are distinct.         Can only be called by the current owner."
			},
			"version()": {
				"notice": "Returns the full semver contract version."
			}
		},
		"notice": "The L2 state is committed to in this contract         The payable keyword is used on proposeL2Output to save gas on the msg.value check.         This contract should be deployed behind an upgradable proxy",
		"version": 1
	},
	"storageLayout": {
		"storage": [
			{
				"astId": 29912,
				"contract": "contracts/L1/L2OutputOracle.sol:L2OutputOracle",
				"label": "_initialized",
				"offset": 0,
				"slot": "0",
				"type": "t_uint8"
			},
			{
				"astId": 29915,
				"contract": "contracts/L1/L2OutputOracle.sol:L2OutputOracle",
				"label": "_initializing",
				"offset": 1,
				"slot": "0",
				"type": "t_bool"
			},
			{
				"astId": 30526,
				"contract": "contracts/L1/L2OutputOracle.sol:L2OutputOracle",
				"label": "__gap",
				"offset": 0,
				"slot": "1",
				"type": "t_array(t_uint256)50_storage"
			},
			{
				"astId": 29784,
				"contract": "contracts/L1/L2OutputOracle.sol:L2OutputOracle",
				"label": "_owner",
				"offset": 0,
				"slot": "51",
				"type": "t_address"
			},
			{
				"astId": 29904,
				"contract": "contracts/L1/L2OutputOracle.sol:L2OutputOracle",
				"label": "__gap",
				"offset": 0,
				"slot": "52",
				"type": "t_array(t_uint256)49_storage"
			},
			{
				"astId": 684,
				"contract": "contracts/L1/L2OutputOracle.sol:L2OutputOracle",
				"label": "proposer",
				"offset": 0,
				"slot": "101",
				"type": "t_address"
			},
			{
				"astId": 687,
				"contract": "contracts/L1/L2OutputOracle.sol:L2OutputOracle",
				"label": "latestBlockNumber",
				"offset": 0,
				"slot": "102",
				"type": "t_uint256"
			},
			{
				"astId": 693,
				"contract": "contracts/L1/L2OutputOracle.sol:L2OutputOracle",
				"label": "l2Outputs",
				"offset": 0,
				"slot": "103",
				"type": "t_mapping(t_uint256,t_struct(OutputProposal)6186_storage)"
			}
		],
		"types": {
			"t_address": {
				"encoding": "inplace",
				"label": "address",
				"numberOfBytes": "20"
			},
			"t_array(t_uint256)49_storage": {
				"encoding": "inplace",
				"label": "uint256[49]",
				"numberOfBytes": "1568",
				"base": "t_uint256"
			},
			"t_array(t_uint256)50_storage": {
				"encoding": "inplace",
				"label": "uint256[50]",
				"numberOfBytes": "1600",
				"base": "t_uint256"
			},
			"t_bool": {
				"encoding": "inplace",
				"label": "bool",
				"numberOfBytes": "1"
			},
			"t_bytes32": {
				"encoding": "inplace",
				"label": "bytes32",
				"numberOfBytes": "32"
			},
			"t_mapping(t_uint256,t_struct(OutputProposal)6186_storage)": {
				"encoding": "mapping",
				"key": "t_uint256",
				"label": "mapping(uint256 => struct Types.OutputProposal)",
				"numberOfBytes": "32",
				"value": "t_struct(OutputProposal)6186_storage"
			},
			"t_struct(OutputProposal)6186_storage": {
				"encoding": "inplace",
				"label": "struct Types.OutputProposal",
				"numberOfBytes": "64",
				"members": [
					{
						"astId": 6183,
						"contract": "contracts/L1/L2OutputOracle.sol:L2OutputOracle",
						"label": "outputRoot",
						"offset": 0,
						"slot": "0",
						"type": "t_bytes32"
					},
					{
						"astId": 6185,
						"contract": "contracts/L1/L2OutputOracle.sol:L2OutputOracle",
						"label": "timestamp",
						"offset": 0,
						"slot": "1",
						"type": "t_uint256"
					}
				]
			},
			"t_uint256": {
				"encoding": "inplace",
				"label": "uint256",
				"numberOfBytes": "32"
			},
			"t_uint8": {
				"encoding": "inplace",
				"label": "uint8",
				"numberOfBytes": "1"
			}
		}
	}
}