{
	"contractName": "OptimismPortal",
	"address": "0x8b1cd1D223A6DBC197cC2ef0F30033Fc4f8Be27b",
	"abi": [
		{
			"inputs": [
				{
					"internalType": "contract L2OutputOracle",
					"name": "_l2Oracle",
					"type": "address"
				},
				{
					"internalType": "uint256",
					"name": "_finalizationPeriodSeconds",
					"type": "uint256"
				}
			],
			"stateMutability": "nonpayable",
			"type": "constructor"
		},
		{
			"anonymous": false,
			"inputs": [
				{
					"indexed": false,
					"internalType": "uint8",
					"name": "version",
					"type": "uint8"
				}
			],
			"name": "Initialized",
			"type": "event"
		},
		{
			"anonymous": false,
			"inputs": [
				{
					"indexed": true,
					"internalType": "address",
					"name": "from",
					"type": "address"
				},
				{
					"indexed": true,
					"internalType": "address",
					"name": "to",
					"type": "address"
				},
				{
					"indexed": true,
					"internalType": "uint256",
					"name": "version",
					"type": "uint256"
				},
				{
					"indexed": false,
					"internalType": "bytes",
					"name": "opaqueData",
					"type": "bytes"
				}
			],
			"name": "TransactionDeposited",
			"type": "event"
		},
		{
			"anonymous": false,
			"inputs": [
				{
					"indexed": true,
					"internalType": "bytes32",
					"name": "withdrawalHash",
					"type": "bytes32"
				},
				{
					"indexed": false,
					"internalType": "bool",
					"name": "success",
					"type": "bool"
				}
			],
			"name": "WithdrawalFinalized",
			"type": "event"
		},
		{
			"anonymous": false,
			"inputs": [
				{
					"indexed": true,
					"internalType": "bytes32",
					"name": "withdrawalHash",
					"type": "bytes32"
				},
				{
					"indexed": true,
					"internalType": "address",
					"name": "from",
					"type": "address"
				},
				{
					"indexed": true,
					"internalType": "address",
					"name": "to",
					"type": "address"
				}
			],
			"name": "WithdrawalProven",
			"type": "event"
		},
		{
			"inputs": [],
			"name": "BASE_FEE_MAX_CHANGE_DENOMINATOR",
			"outputs": [
				{
					"internalType": "int256",
					"name": "",
					"type": "int256"
				}
			],
			"stateMutability": "view",
			"type": "function"
		},
		{
			"inputs": [],
			"name": "ELASTICITY_MULTIPLIER",
			"outputs": [
				{
					"internalType": "int256",
					"name": "",
					"type": "int256"
				}
			],
			"stateMutability": "view",
			"type": "function"
		},
		{
			"inputs": [],
			"name": "FINALIZATION_PERIOD_SECONDS",
			"outputs": [
				{
					"internalType": "uint256",
					"name": "",
					"type": "uint256"
				}
			],
			"stateMutability": "view",
			"type": "function"
		},
		{
			"inputs": [],
			"name": "INITIAL_BASE_FEE",
			"outputs": [
				{
					"internalType": "uint128",
					"name": "",
					"type": "uint128"
				}
			],
			"stateMutability": "view",
			"type": "function"
		},
		{
			"inputs": [],
			"name": "L2_ORACLE",
			"outputs": [
				{
					"internalType": "contract L2OutputOracle",
					"name": "",
					"type": "address"
				}
			],
			"stateMutability": "view",
			"type": "function"
		},
		{
			"inputs": [],
			"name": "MAX_RESOURCE_LIMIT",
			"outputs": [
				{
					"internalType": "int256",
					"name": "",
					"type": "int256"
				}
			],
			"stateMutability": "view",
			"type": "function"
		},
		{
			"inputs": [],
			"name": "MINIMUM_BASE_FEE",
			"outputs": [
				{
					"internalType": "int256",
					"name": "",
					"type": "int256"
				}
			],
			"stateMutability": "view",
			"type": "function"
		},
		{
			"inputs": [],
			"name": "TARGET_RESOURCE_LIMIT",
			"outputs": [
				{
					"internalType": "int256",
					"name": "",
					"type": "int256"
				}
			],
			"stateMutability": "view",
			"type": "function"
		},
		{
			"inputs": [
				{
					"internalType": "address",
					"name": "_to",
					"type": "address"
				},
				{
					"internalType": "uint256",
					"name": "_value",
					"type": "uint256"
				},
				{
					"internalType": "uint64",
					"name": "_gasLimit",
					"type": "uint64"
				},
				{
					"internalType": "bool",
					"name": "_isCreation",
					"type": "bool"
				},
				{
					"internalType": "bytes",
					"name": "_data",
					"type": "bytes"
				}
			],
			"name": "depositTransaction",
			"outputs": [],
			"stateMutability": "payable",
			"type": "function"
		},
		{
			"inputs": [],
			"name": "donateETH",
			"outputs": [],
			"stateMutability": "payable",
			"type": "function"
		},
		{
			"inputs": [
				{
					"components": [
						{
							"internalType": "uint256",
							"name": "nonce",
							"type": "uint256"
						},
						{
							"internalType": "address",
							"name": "sender",
							"type": "address"
						},
						{
							"internalType": "address",
							"name": "target",
							"type": "address"
						},
						{
							"internalType": "uint256",
							"name": "value",
							"type": "uint256"
						},
						{
							"internalType": "uint256",
							"name": "gasLimit",
							"type": "uint256"
						},
						{
							"internalType": "bytes",
							"name": "data",
							"type": "bytes"
						}
					],
					"internalType": "struct Types.WithdrawalTransaction",
					"name": "_tx",
					"type": "tuple"
				}
			],
			"name": "finalizeWithdrawalTransaction",
			"outputs": [],
			"stateMutability": "nonpayable",
			"type": "function"
		},
		{
			"inputs": [
				{
					"internalType": "bytes32",
					"name": "",
					"type": "bytes32"
				}
			],
			"name": "finalizedWithdrawals",
			"outputs": [
				{
					"internalType": "bool",
					"name": "",
					"type": "bool"
				}
			],
			"stateMutability": "view",
			"type": "function"
		},
		{
			"inputs": [],
			"name": "initialize",
			"outputs": [],
			"stateMutability": "nonpayable",
			"type": "function"
		},
		{
			"inputs": [
				{
					"internalType": "uint256",
					"name": "_l2BlockNumber",
					"type": "uint256"
				}
			],
			"name": "isBlockFinalized",
			"outputs": [
				{
					"internalType": "bool",
					"name": "",
					"type": "bool"
				}
			],
			"stateMutability": "view",
			"type": "function"
		},
		{
			"inputs": [],
			"name": "l2Sender",
			"outputs": [
				{
					"internalType": "address",
					"name": "",
					"type": "address"
				}
			],
			"stateMutability": "view",
			"type": "function"
		},
		{
			"inputs": [],
			"name": "params",
			"outputs": [
				{
					"internalType": "uint128",
					"name": "prevBaseFee",
					"type": "uint128"
				},
				{
					"internalType": "uint64",
					"name": "prevBoughtGas",
					"type": "uint64"
				},
				{
					"internalType": "uint64",
					"name": "prevBlockNum",
					"type": "uint64"
				}
			],
			"stateMutability": "view",
			"type": "function"
		},
		{
			"inputs": [
				{
					"components": [
						{
							"internalType": "uint256",
							"name": "nonce",
							"type": "uint256"
						},
						{
							"internalType": "address",
							"name": "sender",
							"type": "address"
						},
						{
							"internalType": "address",
							"name": "target",
							"type": "address"
						},
						{
							"internalType": "uint256",
							"name": "value",
							"type": "uint256"
						},
						{
							"internalType": "uint256",
							"name": "gasLimit",
							"type": "uint256"
						},
						{
							"internalType": "bytes",
							"name": "data",
							"type": "bytes"
						}
					],
					"internalType": "struct Types.WithdrawalTransaction",
					"name": "_tx",
					"type": "tuple"
				},
				{
					"internalType": "uint256",
					"name": "_l2BlockNumber",
					"type": "uint256"
				},
				{
					"components": [
						{
							"internalType": "bytes32",
							"name": "version",
							"type": "bytes32"
						},
						{
							"internalType": "bytes32",
							"name": "stateRoot",
							"type": "bytes32"
						},
						{
							"internalType": "bytes32",
							"name": "messagePasserStorageRoot",
							"type": "bytes32"
						},
						{
							"internalType": "bytes32",
							"name": "latestBlockhash",
							"type": "bytes32"
						}
					],
					"internalType": "struct Types.OutputRootProof",
					"name": "_outputRootProof",
					"type": "tuple"
				},
				{
					"internalType": "bytes[]",
					"name": "_withdrawalProof",
					"type": "bytes[]"
				}
			],
			"name": "proveWithdrawalTransaction",
			"outputs": [],
			"stateMutability": "nonpayable",
			"type": "function"
		},
		{
			"inputs": [
				{
					"internalType": "bytes32",
					"name": "",
					"type": "bytes32"
				}
			],
			"name": "provenWithdrawals",
			"outputs": [
				{
					"internalType": "bytes32",
					"name": "outputRoot",
					"type": "bytes32"
				},
				{
					"internalType": "uint128",
					"name": "timestamp",
					"type": "uint128"
				},
				{
					"internalType": "uint128",
					"name": "l2BlockNumber",
					"type": "uint128"
				}
			],
			"stateMutability": "view",
			"type": "function"
		},
		{
			"inputs": [],
			"name": "version",
			"outputs": [
				{
					"internalType": "string",
					"name": "",
					"type": "string"
				}
			],
			"stateMutability": "view",
			"type": "function"
		},
		{
			"stateMutability": "payable",
			"type": "receive"
		}
	],
	"transactionHash": "0x56798cbf1538318a64c8a7c94443e9be330b645fba2d5eee95a325e1035d25de",
	"solcInputHash": "effffa15b03d887d1411fcd21e9dda8a",
	"numDeployments": 1,
	"args": [
		"0xe633edDbD4C27daDB314256B92405E6E06E85519",
		2
	],
	"bytecode": "0x6101206040523480156200001257600080fd5b5060405162004cde38038062004cde83398101604081905262000035916200005c565b6000608081905260a052600160c0526001600160a01b039091166101005260e05262000098565b600080604083850312156200007057600080fd5b82516001600160a01b03811681146200008857600080fd5b6020939093015192949293505050565b60805160a05160c05160e05161010051614bde620001006000396000818161018501528181610aba01528181611154015281816113c601526118570152600081816104da0152611cf201526000610dab01526000610d8201526000610d590152614bde6000f3fe6080604052600436106101475760003560e01c80638c3152e9116100c0578063cd7c978911610074578063e965084c11610059578063e965084c14610429578063e9e05c42146104b5578063f4daa291146104c857600080fd5b8063cd7c978914610373578063cff0ab961461038857600080fd5b8063a14238e7116100a5578063a14238e7146102fe578063c4fc47981461033e578063ca3e99ba1461035e57600080fd5b80638c3152e9146102b15780639bf62d82146102d157600080fd5b806364b79208116101175780638129fc1c116100fc5780638129fc1c14610286578063867ead131461029b5780638b4c40b01461016c57600080fd5b806364b792081461024c5780636bb0291e1461027157600080fd5b80621c2ff61461017357806313620abd146101d15780634870496f1461020a57806354fd4d501461022a57600080fd5b3661016e5761016c3334620186a06000604051806020016040528060008152506104fc565b005b600080fd5b34801561017f57600080fd5b506101a77f000000000000000000000000000000000000000000000000000000000000000081565b60405173ffffffffffffffffffffffffffffffffffffffff90911681526020015b60405180910390f35b3480156101dd57600080fd5b506101e9633b9aca0081565b6040516fffffffffffffffffffffffffffffffff90911681526020016101c8565b34801561021657600080fd5b5061016c6102253660046142cc565b6109c9565b34801561023657600080fd5b5061023f610d52565b6040516101c89190614422565b34801561025857600080fd5b50610263627a120081565b6040519081526020016101c8565b34801561027d57600080fd5b50610263600481565b34801561029257600080fd5b5061016c610df5565b3480156102a757600080fd5b5061026361271081565b3480156102bd57600080fd5b5061016c6102cc366004614435565b610fb3565b3480156102dd57600080fd5b506032546101a79073ffffffffffffffffffffffffffffffffffffffff1681565b34801561030a57600080fd5b5061032e61031936600461446a565b60336020526000908152604090205460ff1681565b60405190151581526020016101c8565b34801561034a57600080fd5b5061032e61035936600461446a565b61180c565b34801561036a57600080fd5b506102636118d0565b34801561037f57600080fd5b50610263600881565b34801561039457600080fd5b506001546103f0906fffffffffffffffffffffffffffffffff81169067ffffffffffffffff7001000000000000000000000000000000008204811691780100000000000000000000000000000000000000000000000090041683565b604080516fffffffffffffffffffffffffffffffff909416845267ffffffffffffffff92831660208501529116908201526060016101c8565b34801561043557600080fd5b5061048761044436600461446a565b603460205260009081526040902080546001909101546fffffffffffffffffffffffffffffffff8082169170010000000000000000000000000000000090041683565b604080519384526fffffffffffffffffffffffffffffffff92831660208501529116908201526060016101c8565b61016c6104c3366004614483565b6104fc565b3480156104d457600080fd5b506102637f000000000000000000000000000000000000000000000000000000000000000081565b8260005a905083156105b35773ffffffffffffffffffffffffffffffffffffffff8716156105b357604080517f08c379a00000000000000000000000000000000000000000000000000000000081526020600482015260248101919091527f4f7074696d69736d506f7274616c3a206d7573742073656e6420746f2061646460448201527f72657373283029207768656e206372656174696e67206120636f6e747261637460648201526084015b60405180910390fd5b333281146105d4575033731111000000000000000000000000000000001111015b600034888888886040516020016105ef959493929190614510565b604051602081830303815290604052905060008973ffffffffffffffffffffffffffffffffffffffff168373ffffffffffffffffffffffffffffffffffffffff167fb3813568d9991fc951961fcb4c784893574240a28925604d09fc577c55bb7c328460405161065f9190614422565b60405180910390a4505060015460009061069f907801000000000000000000000000000000000000000000000000900467ffffffffffffffff16436145a4565b905080156108285760006106b76004627a12006145ea565b6001546106e29190700100000000000000000000000000000000900467ffffffffffffffff16614652565b9050600060086106f66004627a12006145ea565b6001546107169085906fffffffffffffffffffffffffffffffff166146c6565b61072091906145ea565b61072a91906145ea565b60015490915060009061077690610760906107589085906fffffffffffffffffffffffffffffffff16614782565b6127106118e1565b6fffffffffffffffffffffffffffffffff6118fa565b905060018411156107e9576107e6610760670de0b6b3a76400006107d261079e6008836145ea565b6107b090670de0b6b3a7640000614652565b6107bb60018a6145a4565b6107cd90670de0b6b3a76400006147f6565b611909565b6107dc90856146c6565b61075891906145ea565b90505b6fffffffffffffffffffffffffffffffff16780100000000000000000000000000000000000000000000000067ffffffffffffffff4316021760015550505b6001805484919060109061085b908490700100000000000000000000000000000000900467ffffffffffffffff16614833565b92506101000a81548167ffffffffffffffff021916908367ffffffffffffffff160217905550627a1200600160000160109054906101000a900467ffffffffffffffff1667ffffffffffffffff161315610937576040517f08c379a000000000000000000000000000000000000000000000000000000000815260206004820152603e60248201527f5265736f757263654d65746572696e673a2063616e6e6f7420627579206d6f7260448201527f6520676173207468616e20617661696c61626c6520676173206c696d6974000060648201526084016105aa565b600154600090610963906fffffffffffffffffffffffffffffffff1667ffffffffffffffff861661485f565b6fffffffffffffffffffffffffffffffff169050600061098748633b9aca0061193a565b6109919083614897565b905060005a6109a090866145a4565b9050808211156109bc576109bc6109b782846145a4565b61194a565b5050505050505050505050565b3073ffffffffffffffffffffffffffffffffffffffff16856040015173ffffffffffffffffffffffffffffffffffffffff1603610a88576040517f08c379a000000000000000000000000000000000000000000000000000000000815260206004820152603f60248201527f4f7074696d69736d506f7274616c3a20796f752063616e6e6f742073656e642060448201527f6d6573736167657320746f2074686520706f7274616c20636f6e74726163740060648201526084016105aa565b6040517fa25ae557000000000000000000000000000000000000000000000000000000008152600481018590526000907f000000000000000000000000000000000000000000000000000000000000000073ffffffffffffffffffffffffffffffffffffffff169063a25ae557906024016040805180830381865afa158015610b15573d6000803e3d6000fd5b505050506040513d601f19601f82011682018060405250810190610b3991906148ab565b519050610b53610b4e368690038601866148fa565b611978565b8114610be1576040517f08c379a000000000000000000000000000000000000000000000000000000000815260206004820152602960248201527f4f7074696d69736d506f7274616c3a20696e76616c6964206f7574707574207260448201527f6f6f742070726f6f66000000000000000000000000000000000000000000000060648201526084016105aa565b6000610bec876119d4565b9050610c06816040870135610c018688614960565b611a04565b610c92576040517f08c379a000000000000000000000000000000000000000000000000000000000815260206004820152603260248201527f4f7074696d69736d506f7274616c3a20696e76616c696420776974686472617760448201527f616c20696e636c7573696f6e2070726f6f66000000000000000000000000000060648201526084016105aa565b604080516060810182528381526fffffffffffffffffffffffffffffffff42811660208084019182528a8316848601908152600087815260348352868120955186559251905184167001000000000000000000000000000000000293169290921760019093019290925589830151908a0151925173ffffffffffffffffffffffffffffffffffffffff918216939091169184917f67a6208cfcc0801d50f6cbe764733f4fddf66ac0b04442061a8a8c0cb6b63f629190a450505050505050565b6060610d7d7f0000000000000000000000000000000000000000000000000000000000000000611acb565b610da67f0000000000000000000000000000000000000000000000000000000000000000611acb565b610dcf7f0000000000000000000000000000000000000000000000000000000000000000611acb565b604051602001610de1939291906149e4565b604051602081830303815290604052905090565b600054610100900460ff1615808015610e155750600054600160ff909116105b80610e2f5750303b158015610e2f575060005460ff166001145b610ebb576040517f08c379a000000000000000000000000000000000000000000000000000000000815260206004820152602e60248201527f496e697469616c697a61626c653a20636f6e747261637420697320616c72656160448201527f647920696e697469616c697a656400000000000000000000000000000000000060648201526084016105aa565b600080547fffffffffffffffffffffffffffffffffffffffffffffffffffffffffffffff001660011790558015610f1957600080547fffffffffffffffffffffffffffffffffffffffffffffffffffffffffffff00ff166101001790555b603280547fffffffffffffffffffffffff00000000000000000000000000000000000000001661dead179055610f4d611c08565b8015610fb057600080547fffffffffffffffffffffffffffffffffffffffffffffffffffffffffffff00ff169055604051600181527f7f26b83ff96e1f2b6a682f133852f6798a09c465da95921460cefb38474024989060200160405180910390a15b50565b60325473ffffffffffffffffffffffffffffffffffffffff1661dead1461105c576040517f08c379a000000000000000000000000000000000000000000000000000000000815260206004820152603f60248201527f4f7074696d69736d506f7274616c3a2063616e206f6e6c79207472696767657260448201527f206f6e65207769746864726177616c20706572207472616e73616374696f6e0060648201526084016105aa565b6000611067826119d4565b60008181526034602090815260408083208151606081018352815481526001909101546fffffffffffffffffffffffffffffffff80821694830185905270010000000000000000000000000000000090910416918101919091529293509003611152576040517f08c379a000000000000000000000000000000000000000000000000000000000815260206004820152602e60248201527f4f7074696d69736d506f7274616c3a207769746864726177616c20686173206e60448201527f6f74206265656e2070726f76656e00000000000000000000000000000000000060648201526084016105aa565b7f000000000000000000000000000000000000000000000000000000000000000073ffffffffffffffffffffffffffffffffffffffff166320e9fcd46040518163ffffffff1660e01b8152600401602060405180830381865afa1580156111bd573d6000803e3d6000fd5b505050506040513d601f19601f820116820180604052508101906111e19190614a5a565b81602001516fffffffffffffffffffffffffffffffff1610156112ac576040517f08c379a000000000000000000000000000000000000000000000000000000000815260206004820152604b60248201527f4f7074696d69736d506f7274616c3a207769746864726177616c2074696d657360448201527f74616d70206c657373207468616e204c32204f7261636c65207374617274696e60648201527f672074696d657374616d70000000000000000000000000000000000000000000608482015260a4016105aa565b6112cb81602001516fffffffffffffffffffffffffffffffff16611ceb565b61137d576040517f08c379a000000000000000000000000000000000000000000000000000000000815260206004820152604560248201527f4f7074696d69736d506f7274616c3a2070726f76656e2077697468647261776160448201527f6c2066696e616c697a6174696f6e20706572696f6420686173206e6f7420656c60648201527f6170736564000000000000000000000000000000000000000000000000000000608482015260a4016105aa565b60408181015190517fa25ae5570000000000000000000000000000000000000000000000000000000081526fffffffffffffffffffffffffffffffff90911660048201526000907f000000000000000000000000000000000000000000000000000000000000000073ffffffffffffffffffffffffffffffffffffffff169063a25ae557906024016040805180830381865afa158015611421573d6000803e3d6000fd5b505050506040513d601f19601f8201168201806040525081019061144591906148ab565b82518151919250146114ff576040517f08c379a000000000000000000000000000000000000000000000000000000000815260206004820152604960248201527f4f7074696d69736d506f7274616c3a206f757470757420726f6f742070726f7660448201527f656e206973206e6f74207468652073616d652061732063757272656e74206f7560648201527f7470757420726f6f740000000000000000000000000000000000000000000000608482015260a4016105aa565b61150c8160200151611ceb565b6115be576040517f08c379a000000000000000000000000000000000000000000000000000000000815260206004820152604360248201527f4f7074696d69736d506f7274616c3a206f75747075742070726f706f73616c2060448201527f66696e616c697a6174696f6e20706572696f6420686173206e6f7420656c617060648201527f7365640000000000000000000000000000000000000000000000000000000000608482015260a4016105aa565b60008381526033602052604090205460ff161561165d576040517f08c379a000000000000000000000000000000000000000000000000000000000815260206004820152603560248201527f4f7074696d69736d506f7274616c3a207769746864726177616c20686173206160448201527f6c7265616479206265656e2066696e616c697a6564000000000000000000000060648201526084016105aa565b600083815260336020526040902080547fffffffffffffffffffffffffffffffffffffffffffffffffffffffffffffff0016600117905560808401516116a690614e2090614a73565b5a1015611735576040517f08c379a000000000000000000000000000000000000000000000000000000000815260206004820152603760248201527f4f7074696d69736d506f7274616c3a20696e73756666696369656e742067617360448201527f20746f2066696e616c697a65207769746864726177616c00000000000000000060648201526084016105aa565b8360200151603260006101000a81548173ffffffffffffffffffffffffffffffffffffffff021916908373ffffffffffffffffffffffffffffffffffffffff16021790555060006117988560400151866080015187606001518860a00151611d1f565b603280547fffffffffffffffffffffffff00000000000000000000000000000000000000001661dead17905560405190915084907fdb5c7652857aa163daadd670e116628fb42e869d8ac4251ef8971d9e5727df1b906117fd90841515815260200190565b60405180910390a25050505050565b6040517fa25ae557000000000000000000000000000000000000000000000000000000008152600481018290526000906118ca9073ffffffffffffffffffffffffffffffffffffffff7f0000000000000000000000000000000000000000000000000000000000000000169063a25ae557906024016040805180830381865afa15801561189d573d6000803e3d6000fd5b505050506040513d601f19601f820116820180604052508101906118c191906148ab565b60200151611ceb565b92915050565b6118de6004627a12006145ea565b81565b6000818312156118f157816118f3565b825b9392505050565b60008183126118f157816118f3565b60006118f3670de0b6b3a76400008361192186611d39565b61192b91906146c6565b61193591906145ea565b611f7d565b6000818310156118f157816118f3565b6000805a90505b825a61195d90836145a4565b10156119735761196c82614a8b565b9150611951565b505050565b600081600001518260200151836040015184606001516040516020016119b7949392919093845260208401929092526040830152606082015260800190565b604051602081830303815290604052805190602001209050919050565b80516020808301516040808501516060860151608087015160a088015193516000976119b7979096959101614ac3565b604080516020810185905260009181018290528190606001604080517fffffffffffffffffffffffffffffffffffffffffffffffffffffffffffffffe081840301815282825280516020918201209083018190529250611ac29101604080517fffffffffffffffffffffffffffffffffffffffffffffffffffffffffffffffe0818403018152828201909152600182527f010000000000000000000000000000000000000000000000000000000000000060208301529085876121bc565b95945050505050565b606081600003611b0e57505060408051808201909152600181527f3000000000000000000000000000000000000000000000000000000000000000602082015290565b8160005b8115611b385780611b2281614a8b565b9150611b319050600a83614897565b9150611b12565b60008167ffffffffffffffff811115611b5357611b536140f2565b6040519080825280601f01601f191660200182016040528015611b7d576020820181803683370190505b5090505b8415611c0057611b926001836145a4565b9150611b9f600a86614b1a565b611baa906030614a73565b60f81b818381518110611bbf57611bbf614b2e565b60200101907effffffffffffffffffffffffffffffffffffffffffffffffffffffffffffff1916908160001a905350611bf9600a86614897565b9450611b81565b949350505050565b600054610100900460ff16611c9f576040517f08c379a000000000000000000000000000000000000000000000000000000000815260206004820152602b60248201527f496e697469616c697a61626c653a20636f6e7472616374206973206e6f74206960448201527f6e697469616c697a696e6700000000000000000000000000000000000000000060648201526084016105aa565b60408051606081018252633b9aca00808252600060208301524367ffffffffffffffff169190920181905278010000000000000000000000000000000000000000000000000217600155565b6000611d177f000000000000000000000000000000000000000000000000000000000000000083614a73565b421192915050565b600080600080845160208601878a8af19695505050505050565b6000808213611da4576040517f08c379a000000000000000000000000000000000000000000000000000000000815260206004820152600960248201527f554e444546494e4544000000000000000000000000000000000000000000000060448201526064016105aa565b60006060611db1846121e0565b03609f8181039490941b90931c6c465772b2bbbb5f824b15207a3081018102606090811d6d0388eaa27412d5aca026815d636e018202811d6d0df99ac502031bf953eff472fdcc018202811d6d13cdffb29d51d99322bdff5f2211018202811d6d0a0f742023def783a307a986912e018202811d6d01920d8043ca89b5239253284e42018202811d6c0b7a86d7375468fac667a0a527016c29508e458543d8aa4df2abee7883018302821d6d0139601a2efabe717e604cbb4894018302821d6d02247f7a7b6594320649aa03aba1018302821d7fffffffffffffffffffffffffffffffffffffff73c0c716a594e00d54e3c4cbc9018302821d7ffffffffffffffffffffffffffffffffffffffdc7b88c420e53a9890533129f6f01830290911d7fffffffffffffffffffffffffffffffffffffff465fda27eb4d63ded474e5f832019091027ffffffffffffffff5f6af8f7b3396644f18e157960000000000000000000000000105711340daa0d5f769dba1915cef59f0815a5506027d0267a36c0c95b3975ab3ee5b203a7614a3f75373f047d803ae7b6687f2b393909302929092017d57115e47018c7177eebf7cd370a3356a1b7863008a5ae8028c72b88642840160ae1d92915050565b60007ffffffffffffffffffffffffffffffffffffffffffffffffdb731c958f34d94c18213611fae57506000919050565b680755bf798b4a1bf1e58212612020576040517f08c379a000000000000000000000000000000000000000000000000000000000815260206004820152600c60248201527f4558505f4f564552464c4f57000000000000000000000000000000000000000060448201526064016105aa565b6503782dace9d9604e83901b059150600060606bb17217f7d1cf79abc9e3b39884821b056b80000000000000000000000001901d6bb17217f7d1cf79abc9e3b39881029093037fffffffffffffffffffffffffffffffffffffffdbf3ccf1604d263450f02a550481018102606090811d6d0277594991cfc85f6e2461837cd9018202811d7fffffffffffffffffffffffffffffffffffffe5adedaa1cb095af9e4da10e363c018202811d6db1bbb201f443cf962f1a1d3db4a5018202811d7ffffffffffffffffffffffffffffffffffffd38dc772608b0ae56cce01296c0eb018202811d6e05180bb14799ab47a8a8cb2a527d57016d02d16720577bd19bf614176fe9ea6c10fe68e7fd37d0007b713f765084018402831d9081019084017ffffffffffffffffffffffffffffffffffffffe2c69812cf03b0763fd454a8f7e010290911d6e0587f503bb6ea29d25fcb7401964500190910279d835ebba824c98fb31b83b2ca45c000000000000000000000000010574029d9dc38563c32e5c2f6dc192ee70ef65f9978af30260c3939093039290921c92915050565b6000806121c8866122b6565b90506121d6818686866122e8565b9695505050505050565b600080821161224b576040517f08c379a000000000000000000000000000000000000000000000000000000000815260206004820152600960248201527f554e444546494e4544000000000000000000000000000000000000000000000060448201526064016105aa565b5060016fffffffffffffffffffffffffffffffff821160071b82811c67ffffffffffffffff1060061b1782811c63ffffffff1060051b1782811c61ffff1060041b1782811c60ff10600390811b90911783811c600f1060021b1783811c909110821b1791821c111790565b606081805190602001206040516020016122d291815260200190565b6040516020818303038152906040529050919050565b60008060006122f8878686612325565b9150915081801561231a57508051602080830191909120875191880191909120145b979650505050505050565b60006060600061233485612443565b90506000806000612346848a89612532565b8151929550909350915015808061235a5750815b6123e6576040517f08c379a000000000000000000000000000000000000000000000000000000000815260206004820152602560248201527f4d65726b6c65547269653a2070726f76696465642070726f6f6620697320696e60448201527f76616c696400000000000000000000000000000000000000000000000000000060648201526084016105aa565b600081612402576040518060200160405280600081525061242e565b61242e866124116001886145a4565b8151811061242157612421614b2e565b6020026020010151612c36565b805115159c909b509950505050505050505050565b805160609060008167ffffffffffffffff811115612463576124636140f2565b6040519080825280602002602001820160405280156124a857816020015b60408051808201909152606080825260208201528152602001906001900390816124815790505b50905060005b8281101561252a5760405180604001604052808683815181106124d3576124d3614b2e565b602002602001015181526020016125028784815181106124f5576124f5614b2e565b6020026020010151612c6d565b81525082828151811061251757612517614b2e565b60209081029190910101526001016124ae565b509392505050565b6000606081808061254287612c80565b905060008660405160200161255991815260200190565b604080517fffffffffffffffffffffffffffffffffffffffffffffffffffffffffffffffe0818403018152828201909152606080835260208301529150600090819060005b8c51811015612bb8578c81815181106125b9576125b9614b2e565b6020026020010151915082846125cf9190614a73565b93506125dc600188614a73565b965083600003612697578151805160209182012060405161262c9261260692910190815260200190565b604051602081830303815290604052868051602091820120825192909101919091201490565b612692576040517f08c379a000000000000000000000000000000000000000000000000000000000815260206004820152601d60248201527f4d65726b6c65547269653a20696e76616c696420726f6f74206861736800000060448201526064016105aa565b6127ee565b81515160201161274d57815180516020918201206040516126c19261260692910190815260200190565b612692576040517f08c379a000000000000000000000000000000000000000000000000000000000815260206004820152602760248201527f4d65726b6c65547269653a20696e76616c6964206c6172676520696e7465726e60448201527f616c20686173680000000000000000000000000000000000000000000000000060648201526084016105aa565b8151855160208088019190912082519190920120146127ee576040517f08c379a000000000000000000000000000000000000000000000000000000000815260206004820152602660248201527f4d65726b6c65547269653a20696e76616c696420696e7465726e616c206e6f6460448201527f652068617368000000000000000000000000000000000000000000000000000060648201526084016105aa565b6127fa60106001614a73565b8260200151510361286c5785518414612bb857600086858151811061282157612821614b2e565b602001015160f81c60f81b60f81c9050600083602001518260ff168151811061284c5761284c614b2e565b6020026020010151905061285f81612e1b565b9650600194505050612ba6565b600282602001515103612b1e57600061288483612e40565b905060008160008151811061289b5761289b614b2e565b016020015160f81c905060006128b2600283614b5d565b6128bd906002614b7f565b905060006128ce848360ff16612e64565b905060006128dc8b8a612e64565b905060006128ea8383612e9a565b905082518251101561297e576040517f08c379a000000000000000000000000000000000000000000000000000000000815260206004820152603960248201527f4d65726b6c65547269653a20696e76616c6964206b6579206c656e677468206660448201527f6f72206c656166206f7220657874656e73696f6e206e6f64650000000000000060648201526084016105aa565b60ff851660021480612993575060ff85166003145b156129fd578083511480156129a85750808251145b156129ba576129b7818b614a73565b99505b6040518060400160405280600181526020017f80000000000000000000000000000000000000000000000000000000000000008152509a50505050505050612bb8565b60ff85161580612a10575060ff85166001145b15612a965782518114612a60576040518060400160405280600181526020017f80000000000000000000000000000000000000000000000000000000000000008152509a50505050505050612bb8565b612a878860200151600181518110612a7a57612a7a614b2e565b6020026020010151612e1b565b9a509750612ba6945050505050565b6040517f08c379a000000000000000000000000000000000000000000000000000000000815260206004820152603260248201527f4d65726b6c65547269653a2072656365697665642061206e6f6465207769746860448201527f20616e20756e6b6e6f776e20707265666978000000000000000000000000000060648201526084016105aa565b6040517f08c379a000000000000000000000000000000000000000000000000000000000815260206004820152602860248201527f4d65726b6c65547269653a20726563656976656420616e20756e70617273656160448201527f626c65206e6f646500000000000000000000000000000000000000000000000060648201526084016105aa565b80612bb081614a8b565b91505061259e565b5085612bc48685612e64565b60408051808201909152600181527f80000000000000000000000000000000000000000000000000000000000000006020918201528651908701207f56e81f171bcc55a6ff8345e692c0f86e5b48e01b996cadc001622fb5e363b4211498509850985050505050505093509350939050565b602081015180516060916118ca91612c50906001906145a4565b81518110612c6057612c60614b2e565b6020026020010151612f49565b60606118ca612c7b836130a9565b613192565b80516060906000612c928260026147f6565b67ffffffffffffffff811115612caa57612caa6140f2565b6040519080825280601f01601f191660200182016040528015612cd4576020820181803683370190505b5090506000805b83811015612e1157858181518110612cf557612cf5614b2e565b6020910101517fff000000000000000000000000000000000000000000000000000000000000008116925060041c7f0ff00000000000000000000000000000000000000000000000000000000000001683612d518360026147f6565b81518110612d6157612d61614b2e565b60200101907effffffffffffffffffffffffffffffffffffffffffffffffffffffffffffff1916908160001a9053507f0f00000000000000000000000000000000000000000000000000000000000000821683612dbf8360026147f6565b612dca906001614a73565b81518110612dda57612dda614b2e565b60200101907effffffffffffffffffffffffffffffffffffffffffffffffffffffffffffff1916908160001a905350600101612cdb565b5090949350505050565b60606020826000015110612e3757612e3282612f49565b6118ca565b6118ca826133f6565b60606118ca612e5f8360200151600081518110612c6057612c60614b2e565b612c80565b606082518210612e8357506040805160208101909152600081526118ca565b6118f38383848651612e9591906145a4565b61340c565b60008060008351855110612eaf578351612eb2565b84515b90505b8082108015612f395750838281518110612ed157612ed1614b2e565b602001015160f81c60f81b7effffffffffffffffffffffffffffffffffffffffffffffffffffffffffffff1916858381518110612f1057612f10614b2e565b01602001517fff0000000000000000000000000000000000000000000000000000000000000016145b1561252a57816001019150612eb5565b60606000806000612f59856135e4565b919450925090506000816001811115612f7457612f74614ba2565b14613001576040517f08c379a000000000000000000000000000000000000000000000000000000000815260206004820152603960248201527f524c505265616465723a206465636f646564206974656d207479706520666f7260448201527f206279746573206973206e6f7420612064617461206974656d0000000000000060648201526084016105aa565b61300b8284614a73565b85511461309a576040517f08c379a000000000000000000000000000000000000000000000000000000000815260206004820152603460248201527f524c505265616465723a2062797465732076616c756520636f6e7461696e732060448201527f616e20696e76616c69642072656d61696e64657200000000000000000000000060648201526084016105aa565b611ac285602001518484614051565b60408051808201909152600080825260208201526000825111613174576040517f08c379a000000000000000000000000000000000000000000000000000000000815260206004820152604a60248201527f524c505265616465723a206c656e677468206f6620616e20524c50206974656d60448201527f206d7573742062652067726561746572207468616e207a65726f20746f20626560648201527f206465636f6461626c6500000000000000000000000000000000000000000000608482015260a4016105aa565b50604080518082019091528151815260209182019181019190915290565b606060008060006131a2856135e4565b9194509250905060018160018111156131bd576131bd614ba2565b1461324a576040517f08c379a000000000000000000000000000000000000000000000000000000000815260206004820152603860248201527f524c505265616465723a206465636f646564206974656d207479706520666f7260448201527f206c697374206973206e6f742061206c697374206974656d000000000000000060648201526084016105aa565b84516132568385614a73565b146132e3576040517f08c379a000000000000000000000000000000000000000000000000000000000815260206004820152603260248201527f524c505265616465723a206c697374206974656d2068617320616e20696e766160448201527f6c696420646174612072656d61696e646572000000000000000000000000000060648201526084016105aa565b6040805160208082526104208201909252600091816020015b60408051808201909152600080825260208201528152602001906001900390816132fc5790505090506000845b87518110156133ea5760008061336f6040518060400160405280858d6000015161335391906145a4565b8152602001858d602001516133689190614a73565b90526135e4565b50915091506040518060400160405280838361338b9190614a73565b8152602001848c602001516133a09190614a73565b8152508585815181106133b5576133b5614b2e565b60209081029190910101526133cb600185614a73565b93506133d78183614a73565b6133e19084614a73565b92505050613329565b50815295945050505050565b60606118ca826020015160008460000151614051565b60608182601f01101561347b576040517f08c379a000000000000000000000000000000000000000000000000000000000815260206004820152600e60248201527f736c6963655f6f766572666c6f7700000000000000000000000000000000000060448201526064016105aa565b8282840110156134e7576040517f08c379a000000000000000000000000000000000000000000000000000000000815260206004820152600e60248201527f736c6963655f6f766572666c6f7700000000000000000000000000000000000060448201526064016105aa565b81830184511015613554576040517f08c379a000000000000000000000000000000000000000000000000000000000815260206004820152601160248201527f736c6963655f6f75744f66426f756e647300000000000000000000000000000060448201526064016105aa565b60608215801561357357604051915060008252602082016040526135db565b6040519150601f8416801560200281840101858101878315602002848b0101015b818310156135ac578051835260209283019201613594565b5050858452601f017fffffffffffffffffffffffffffffffffffffffffffffffffffffffffffffffe016604052505b50949350505050565b6000806000808460000151116136a2576040517f08c379a000000000000000000000000000000000000000000000000000000000815260206004820152604a60248201527f524c505265616465723a206c656e677468206f6620616e20524c50206974656d60448201527f206d7573742062652067726561746572207468616e207a65726f20746f20626560648201527f206465636f6461626c6500000000000000000000000000000000000000000000608482015260a4016105aa565b6020840151805160001a607f81116136c757600060016000945094509450505061404a565b60b781116138d55760006136dc6080836145a4565b905080876000015111613797576040517f08c379a000000000000000000000000000000000000000000000000000000000815260206004820152604e60248201527f524c505265616465723a206c656e677468206f6620636f6e74656e74206d757360448201527f742062652067726561746572207468616e20737472696e67206c656e6774682060648201527f2873686f727420737472696e6729000000000000000000000000000000000000608482015260a4016105aa565b6001838101517fff0000000000000000000000000000000000000000000000000000000000000016908214158061381057507f80000000000000000000000000000000000000000000000000000000000000007fff00000000000000000000000000000000000000000000000000000000000000821610155b6138c2576040517f08c379a000000000000000000000000000000000000000000000000000000000815260206004820152604d60248201527f524c505265616465723a20696e76616c6964207072656669782c2073696e676c60448201527f652062797465203c203078383020617265206e6f74207072656669786564202860648201527f73686f727420737472696e672900000000000000000000000000000000000000608482015260a4016105aa565b506001955093506000925061404a915050565b60bf8111613c235760006138ea60b7836145a4565b9050808760000151116139a5576040517f08c379a000000000000000000000000000000000000000000000000000000000815260206004820152605160248201527f524c505265616465723a206c656e677468206f6620636f6e74656e74206d757360448201527f74206265203e207468616e206c656e677468206f6620737472696e67206c656e60648201527f67746820286c6f6e6720737472696e6729000000000000000000000000000000608482015260a4016105aa565b60018301517fff00000000000000000000000000000000000000000000000000000000000000166000819003613a83576040517f08c379a000000000000000000000000000000000000000000000000000000000815260206004820152604a60248201527f524c505265616465723a206c656e677468206f6620636f6e74656e74206d757360448201527f74206e6f74206861766520616e79206c656164696e67207a65726f7320286c6f60648201527f6e6720737472696e672900000000000000000000000000000000000000000000608482015260a4016105aa565b600184015160088302610100031c60378111613b47576040517f08c379a000000000000000000000000000000000000000000000000000000000815260206004820152604860248201527f524c505265616465723a206c656e677468206f6620636f6e74656e74206d757360448201527f742062652067726561746572207468616e20353520627974657320286c6f6e6760648201527f20737472696e6729000000000000000000000000000000000000000000000000608482015260a4016105aa565b613b518184614a73565b895111613c06576040517f08c379a000000000000000000000000000000000000000000000000000000000815260206004820152604c60248201527f524c505265616465723a206c656e677468206f6620636f6e74656e74206d757360448201527f742062652067726561746572207468616e20746f74616c206c656e677468202860648201527f6c6f6e6720737472696e67290000000000000000000000000000000000000000608482015260a4016105aa565b613c11836001614a73565b975095506000945061404a9350505050565b60f78111613d04576000613c3860c0836145a4565b905080876000015111613cf3576040517f08c379a000000000000000000000000000000000000000000000000000000000815260206004820152604a60248201527f524c505265616465723a206c656e677468206f6620636f6e74656e74206d757360448201527f742062652067726561746572207468616e206c697374206c656e67746820287360648201527f686f7274206c6973742900000000000000000000000000000000000000000000608482015260a4016105aa565b60019550935084925061404a915050565b6000613d1160f7836145a4565b905080876000015111613dcc576040517f08c379a000000000000000000000000000000000000000000000000000000000815260206004820152604d60248201527f524c505265616465723a206c656e677468206f6620636f6e74656e74206d757360448201527f74206265203e207468616e206c656e677468206f66206c697374206c656e677460648201527f6820286c6f6e67206c6973742900000000000000000000000000000000000000608482015260a4016105aa565b60018301517fff00000000000000000000000000000000000000000000000000000000000000166000819003613eaa576040517f08c379a000000000000000000000000000000000000000000000000000000000815260206004820152604860248201527f524c505265616465723a206c656e677468206f6620636f6e74656e74206d757360448201527f74206e6f74206861766520616e79206c656164696e67207a65726f7320286c6f60648201527f6e67206c69737429000000000000000000000000000000000000000000000000608482015260a4016105aa565b600184015160088302610100031c60378111613f6e576040517f08c379a000000000000000000000000000000000000000000000000000000000815260206004820152604660248201527f524c505265616465723a206c656e677468206f6620636f6e74656e74206d757360448201527f742062652067726561746572207468616e20353520627974657320286c6f6e6760648201527f206c697374290000000000000000000000000000000000000000000000000000608482015260a4016105aa565b613f788184614a73565b89511161402d576040517f08c379a000000000000000000000000000000000000000000000000000000000815260206004820152604a60248201527f524c505265616465723a206c656e677468206f6620636f6e74656e74206d757360448201527f742062652067726561746572207468616e20746f74616c206c656e677468202860648201527f6c6f6e67206c6973742900000000000000000000000000000000000000000000608482015260a4016105aa565b614038836001614a73565b975095506001945061404a9350505050565b9193909250565b606060008267ffffffffffffffff81111561406e5761406e6140f2565b6040519080825280601f01601f191660200182016040528015614098576020820181803683370190505b509050826000036140aa5790506118f3565b60006140b68587614a73565b90506020820160005b858110156140d75782810151828201526020016140bf565b858111156140e6576000868301525b50919695505050505050565b7f4e487b7100000000000000000000000000000000000000000000000000000000600052604160045260246000fd5b604051601f82017fffffffffffffffffffffffffffffffffffffffffffffffffffffffffffffffe016810167ffffffffffffffff81118282101715614168576141686140f2565b604052919050565b803573ffffffffffffffffffffffffffffffffffffffff8116811461419457600080fd5b919050565b600082601f8301126141aa57600080fd5b813567ffffffffffffffff8111156141c4576141c46140f2565b6141f560207fffffffffffffffffffffffffffffffffffffffffffffffffffffffffffffffe0601f84011601614121565b81815284602083860101111561420a57600080fd5b816020850160208301376000918101602001919091529392505050565b600060c0828403121561423957600080fd5b60405160c0810167ffffffffffffffff828210818311171561425d5761425d6140f2565b816040528293508435835261427460208601614170565b602084015261428560408601614170565b6040840152606085013560608401526080850135608084015260a08501359150808211156142b257600080fd5b506142bf85828601614199565b60a0830152505092915050565b600080600080600085870360e08112156142e557600080fd5b863567ffffffffffffffff808211156142fd57600080fd5b6143098a838b01614227565b97506020890135965060807fffffffffffffffffffffffffffffffffffffffffffffffffffffffffffffffc08401121561434257600080fd5b60408901955060c089013592508083111561435c57600080fd5b828901925089601f84011261437057600080fd5b823591508082111561438157600080fd5b508860208260051b840101111561439757600080fd5b959894975092955050506020019190565b60005b838110156143c35781810151838201526020016143ab565b838111156143d2576000848401525b50505050565b600081518084526143f08160208601602086016143a8565b601f017fffffffffffffffffffffffffffffffffffffffffffffffffffffffffffffffe0169290920160200192915050565b6020815260006118f360208301846143d8565b60006020828403121561444757600080fd5b813567ffffffffffffffff81111561445e57600080fd5b611c0084828501614227565b60006020828403121561447c57600080fd5b5035919050565b600080600080600060a0868803121561449b57600080fd5b6144a486614170565b945060208601359350604086013567ffffffffffffffff80821682146144c957600080fd5b90935060608701359081151582146144e057600080fd5b909250608087013590808211156144f657600080fd5b5061450388828901614199565b9150509295509295909350565b8581528460208201527fffffffffffffffff0000000000000000000000000000000000000000000000008460c01b16604082015282151560f81b6048820152600082516145648160498501602087016143a8565b919091016049019695505050505050565b7f4e487b7100000000000000000000000000000000000000000000000000000000600052601160045260246000fd5b6000828210156145b6576145b6614575565b500390565b7f4e487b7100000000000000000000000000000000000000000000000000000000600052601260045260246000fd5b6000826145f9576145f96145bb565b7fffffffffffffffffffffffffffffffffffffffffffffffffffffffffffffffff83147f80000000000000000000000000000000000000000000000000000000000000008314161561464d5761464d614575565b500590565b6000808312837f80000000000000000000000000000000000000000000000000000000000000000183128115161561468c5761468c614575565b837f7fffffffffffffffffffffffffffffffffffffffffffffffffffffffffffffff0183138116156146c0576146c0614575565b50500390565b60007f7fffffffffffffffffffffffffffffffffffffffffffffffffffffffffffffff60008413600084138583048511828216161561470757614707614575565b7f8000000000000000000000000000000000000000000000000000000000000000600087128682058812818416161561474257614742614575565b6000871292508782058712848416161561475e5761475e614575565b8785058712818416161561477457614774614575565b505050929093029392505050565b6000808212827f7fffffffffffffffffffffffffffffffffffffffffffffffffffffffffffffff038413811516156147bc576147bc614575565b827f80000000000000000000000000000000000000000000000000000000000000000384128116156147f0576147f0614575565b50500190565b6000817fffffffffffffffffffffffffffffffffffffffffffffffffffffffffffffffff048311821515161561482e5761482e614575565b500290565b600067ffffffffffffffff80831681851680830382111561485657614856614575565b01949350505050565b60006fffffffffffffffffffffffffffffffff8083168185168183048111821515161561488e5761488e614575565b02949350505050565b6000826148a6576148a66145bb565b500490565b6000604082840312156148bd57600080fd5b6040516040810181811067ffffffffffffffff821117156148e0576148e06140f2565b604052825181526020928301519281019290925250919050565b60006080828403121561490c57600080fd5b6040516080810181811067ffffffffffffffff8211171561492f5761492f6140f2565b8060405250823581526020830135602082015260408301356040820152606083013560608201528091505092915050565b600067ffffffffffffffff8084111561497b5761497b6140f2565b8360051b602061498c818301614121565b8681529185019181810190368411156149a457600080fd5b865b848110156149d8578035868111156149be5760008081fd5b6149ca36828b01614199565b8452509183019183016149a6565b50979650505050505050565b600084516149f68184602089016143a8565b80830190507f2e000000000000000000000000000000000000000000000000000000000000008082528551614a32816001850160208a016143a8565b60019201918201528351614a4d8160028401602088016143a8565b0160020195945050505050565b600060208284031215614a6c57600080fd5b5051919050565b60008219821115614a8657614a86614575565b500190565b60007fffffffffffffffffffffffffffffffffffffffffffffffffffffffffffffffff8203614abc57614abc614575565b5060010190565b868152600073ffffffffffffffffffffffffffffffffffffffff808816602084015280871660408401525084606083015283608083015260c060a0830152614b0e60c08301846143d8565b98975050505050505050565b600082614b2957614b296145bb565b500690565b7f4e487b7100000000000000000000000000000000000000000000000000000000600052603260045260246000fd5b600060ff831680614b7057614b706145bb565b8060ff84160691505092915050565b600060ff821660ff841680821015614b9957614b99614575565b90039392505050565b7f4e487b7100000000000000000000000000000000000000000000000000000000600052602160045260246000fdfea164736f6c634300080f000a",
	"deployedBytecode": "0x60806040526004361061005e5760003560e01c80635c60da1b116100435780635c60da1b146100be5780638f283970146100f8578063f851a440146101185761006d565b80633659cfe6146100755780634f1ef286146100955761006d565b3661006d5761006b61012d565b005b61006b61012d565b34801561008157600080fd5b5061006b6100903660046106d9565b610224565b6100a86100a33660046106f4565b610296565b6040516100b59190610777565b60405180910390f35b3480156100ca57600080fd5b506100d3610419565b60405173ffffffffffffffffffffffffffffffffffffffff90911681526020016100b5565b34801561010457600080fd5b5061006b6101133660046106d9565b6104b0565b34801561012457600080fd5b506100d3610517565b60006101577f360894a13ba1a3210667c828492db98dca3e2076cc3735a920a3ca505d382bbc5490565b905073ffffffffffffffffffffffffffffffffffffffff8116610201576040517f08c379a000000000000000000000000000000000000000000000000000000000815260206004820152602560248201527f50726f78793a20696d706c656d656e746174696f6e206e6f7420696e6974696160448201527f6c697a656400000000000000000000000000000000000000000000000000000060648201526084015b60405180910390fd5b3660008037600080366000845af43d6000803e8061021e573d6000fd5b503d6000f35b7fb53127684a568b3173ae13b9f8a6016e243e63b6e8ee1178d6a717850b5d61035473ffffffffffffffffffffffffffffffffffffffff163373ffffffffffffffffffffffffffffffffffffffff16148061027d575033155b1561028e5761028b816105a3565b50565b61028b61012d565b60606102c07fb53127684a568b3173ae13b9f8a6016e243e63b6e8ee1178d6a717850b5d61035490565b73ffffffffffffffffffffffffffffffffffffffff163373ffffffffffffffffffffffffffffffffffffffff1614806102f7575033155b1561040a57610305846105a3565b6000808573ffffffffffffffffffffffffffffffffffffffff16858560405161032f9291906107ea565b600060405180830381855af49150503d806000811461036a576040519150601f19603f3d011682016040523d82523d6000602084013e61036f565b606091505b509150915081610401576040517f08c379a000000000000000000000000000000000000000000000000000000000815260206004820152603960248201527f50726f78793a2064656c656761746563616c6c20746f206e657720696d706c6560448201527f6d656e746174696f6e20636f6e7472616374206661696c65640000000000000060648201526084016101f8565b91506104129050565b61041261012d565b9392505050565b60006104437fb53127684a568b3173ae13b9f8a6016e243e63b6e8ee1178d6a717850b5d61035490565b73ffffffffffffffffffffffffffffffffffffffff163373ffffffffffffffffffffffffffffffffffffffff16148061047a575033155b156104a557507f360894a13ba1a3210667c828492db98dca3e2076cc3735a920a3ca505d382bbc5490565b6104ad61012d565b90565b7fb53127684a568b3173ae13b9f8a6016e243e63b6e8ee1178d6a717850b5d61035473ffffffffffffffffffffffffffffffffffffffff163373ffffffffffffffffffffffffffffffffffffffff161480610509575033155b1561028e5761028b8161060b565b60006105417fb53127684a568b3173ae13b9f8a6016e243e63b6e8ee1178d6a717850b5d61035490565b73ffffffffffffffffffffffffffffffffffffffff163373ffffffffffffffffffffffffffffffffffffffff161480610578575033155b156104a557507fb53127684a568b3173ae13b9f8a6016e243e63b6e8ee1178d6a717850b5d61035490565b7f360894a13ba1a3210667c828492db98dca3e2076cc3735a920a3ca505d382bbc81905560405173ffffffffffffffffffffffffffffffffffffffff8216907fbc7cd75a20ee27fd9adebab32041f755214dbc6bffa90cc0225b39da2e5c2d3b90600090a250565b60006106357fb53127684a568b3173ae13b9f8a6016e243e63b6e8ee1178d6a717850b5d61035490565b7fb53127684a568b3173ae13b9f8a6016e243e63b6e8ee1178d6a717850b5d61038390556040805173ffffffffffffffffffffffffffffffffffffffff8084168252851660208201529192507f7e644d79422f17c01e4894b5f4f588d331ebfa28653d42ae832dc59e38c9798f910160405180910390a15050565b803573ffffffffffffffffffffffffffffffffffffffff811681146106d457600080fd5b919050565b6000602082840312156106eb57600080fd5b610412826106b0565b60008060006040848603121561070957600080fd5b610712846106b0565b9250602084013567ffffffffffffffff8082111561072f57600080fd5b818601915086601f83011261074357600080fd5b81358181111561075257600080fd5b87602082850101111561076457600080fd5b6020830194508093505050509250925092565b600060208083528351808285015260005b818110156107a457858101830151858201604001528201610788565b818111156107b6576000604083870101525b50601f017fffffffffffffffffffffffffffffffffffffffffffffffffffffffffffffffe016929092016040019392505050565b818382376000910190815291905056fea26469706673582212200216099710a39ba669241f500daaab663209453b368ac65b50d253a46152ae8364736f6c634300080f0033",
	"devdoc": {
		"custom:proxied": "@title OptimismPortal",
		"events": {
			"TransactionDeposited(address,address,uint256,bytes)": {
				"params": {
					"from": "Address that triggered the deposit transaction.",
					"opaqueData": "ABI encoded deposit data to be parsed off-chain.",
					"to": "Address that the deposit transaction is directed to.",
					"version": "Version of this deposit transaction event."
				}
			},
			"WithdrawalFinalized(bytes32,bool)": {
				"params": {
					"success": "Whether the withdrawal transaction was successful.",
					"withdrawalHash": "Hash of the withdrawal transaction."
				}
			},
			"WithdrawalProven(bytes32,address,address)": {
				"params": {
					"withdrawalHash": "Hash of the withdrawal transaction."
				}
			}
		},
		"kind": "dev",
		"methods": {
			"constructor": {
				"custom:semver": "0.0.1",
				"params": {
					"_finalizationPeriodSeconds": "Output finalization time in seconds.",
					"_l2Oracle": "Address of the L2OutputOracle contract."
				}
			},
			"depositTransaction(address,uint256,uint64,bool,bytes)": {
				"params": {
					"_data": "Data to trigger the recipient with.",
					"_gasLimit": "Minimum L2 gas limit (can be greater than or equal to this value).",
					"_isCreation": "Whether or not the transaction is a contract creation.",
					"_to": "Target address on L2.",
					"_value": "ETH value to send to the recipient."
				}
			},
			"finalizeWithdrawalTransaction((uint256,address,address,uint256,uint256,bytes))": {
				"params": {
					"_tx": "Withdrawal transaction to finalize."
				}
			},
			"isBlockFinalized(uint256)": {
				"params": {
					"_l2BlockNumber": "The number of the L2 block."
				}
			},
			"proveWithdrawalTransaction((uint256,address,address,uint256,uint256,bytes),uint256,(bytes32,bytes32,bytes32,bytes32),bytes[])": {
				"params": {
					"_l2BlockNumber": "L2 block number of the outputRoot.",
					"_outputRootProof": "Inclusion proof of the L2ToL1MessagePasser contract's storage root.",
					"_tx": "Withdrawal transaction to finalize.",
					"_withdrawalProof": "Inclusion proof of the withdrawal in L2ToL1MessagePasser contract."
				}
			},
			"version()": {
				"returns": {
					"_0": "Semver contract version as a string."
				}
			}
		},
		"version": 1
	},
	"userdoc": {
		"events": {
			"TransactionDeposited(address,address,uint256,bytes)": {
				"notice": "Emitted when a transaction is deposited from L1 to L2. The parameters of this event         are read by the rollup node and used to derive deposit transactions on L2."
			},
			"WithdrawalFinalized(bytes32,bool)": {
				"notice": "Emitted when a withdrawal transaction is finalized."
			},
			"WithdrawalProven(bytes32,address,address)": {
				"notice": "Emitted when a withdrawal transaction is proven."
			}
		},
		"kind": "user",
		"methods": {
			"BASE_FEE_MAX_CHANGE_DENOMINATOR()": {
				"notice": "Denominator that determines max change on fee per block."
			},
			"ELASTICITY_MULTIPLIER()": {
				"notice": "Along with the resource limit, determines the target resource limit."
			},
			"FINALIZATION_PERIOD_SECONDS()": {
				"notice": "Minimum time (in seconds) that must elapse before a withdrawal can be finalized."
			},
			"INITIAL_BASE_FEE()": {
				"notice": "Initial base fee value."
			},
			"L2_ORACLE()": {
				"notice": "Address of the L2OutputOracle."
			},
			"MAX_RESOURCE_LIMIT()": {
				"notice": "Maximum amount of the resource that can be used within this block."
			},
			"MINIMUM_BASE_FEE()": {
				"notice": "Minimum base fee value, cannot go lower than this."
			},
			"TARGET_RESOURCE_LIMIT()": {
				"notice": "Target amount of the resource that should be used within this block."
			},
			"depositTransaction(address,uint256,uint64,bool,bytes)": {
				"notice": "Accepts deposits of ETH and data, and emits a TransactionDeposited event for use in         deriving deposit transactions. Note that if a deposit is made by a contract, its         address will be aliased when retrieved using `tx.origin` or `msg.sender`. Consider         using the CrossDomainMessenger contracts for a simpler developer experience."
			},
			"donateETH()": {
				"notice": "Accepts ETH value without triggering a deposit to L2. This function mainly exists         for the sake of the migration between the legacy Optimism system and Bedrock."
			},
			"finalizeWithdrawalTransaction((uint256,address,address,uint256,uint256,bytes))": {
				"notice": "Finalizes a withdrawal transaction."
			},
			"finalizedWithdrawals(bytes32)": {
				"notice": "A list of withdrawal hashes which have been successfully finalized."
			},
			"initialize()": {
				"notice": "Initializer;"
			},
			"isBlockFinalized(uint256)": {
				"notice": "Determine if a given block number is finalized. Reverts if the call to         L2_ORACLE.getL2Output reverts. Returns a boolean otherwise."
			},
			"l2Sender()": {
				"notice": "Address of the L2 account which initiated a withdrawal in this transaction. If the         of this variable is the default L2 sender address, then we are NOT inside of a call         to finalizeWithdrawalTransaction."
			},
			"params()": {
				"notice": "EIP-1559 style gas parameters."
			},
			"proveWithdrawalTransaction((uint256,address,address,uint256,uint256,bytes),uint256,(bytes32,bytes32,bytes32,bytes32),bytes[])": {
				"notice": "Proves a withdrawal transaction."
			},
			"provenWithdrawals(bytes32)": {
				"notice": "A mapping of withdrawal hashes to `ProvenWithdrawal` data."
			},
			"version()": {
				"notice": "Returns the full semver contract version."
			}
		},
		"notice": "The OptimismPortal is a low-level contract responsible for passing messages between L1         and L2. Messages sent directly to the OptimismPortal have no form of replayability.         Users are encouraged to use the L1CrossDomainMessenger for a higher-level interface.",
		"version": 1
	},
	"storageLayout": {
		"storage": [
			{
				"astId": 30725,
				"contract": "contracts/L1/OptimismPortal.sol:OptimismPortal",
				"label": "_initialized",
				"offset": 0,
				"slot": "0",
				"type": "t_uint8"
			},
			{
				"astId": 30728,
				"contract": "contracts/L1/OptimismPortal.sol:OptimismPortal",
				"label": "_initializing",
				"offset": 1,
				"slot": "0",
				"type": "t_bool"
			},
			{
				"astId": 1684,
				"contract": "contracts/L1/OptimismPortal.sol:OptimismPortal",
				"label": "params",
				"offset": 0,
				"slot": "1",
				"type": "t_struct(ResourceParams)1654_storage"
			},
			{
				"astId": 1689,
				"contract": "contracts/L1/OptimismPortal.sol:OptimismPortal",
				"label": "__gap",
				"offset": 0,
				"slot": "2",
				"type": "t_array(t_uint256)48_storage"
			},
			{
				"astId": 1168,
				"contract": "contracts/L1/OptimismPortal.sol:OptimismPortal",
				"label": "l2Sender",
				"offset": 0,
				"slot": "50",
				"type": "t_address"
			},
			{
				"astId": 1173,
				"contract": "contracts/L1/OptimismPortal.sol:OptimismPortal",
				"label": "finalizedWithdrawals",
				"offset": 0,
				"slot": "51",
				"type": "t_mapping(t_bytes32,t_bool)"
			},
			{
				"astId": 1179,
				"contract": "contracts/L1/OptimismPortal.sol:OptimismPortal",
				"label": "provenWithdrawals",
				"offset": 0,
				"slot": "52",
				"type": "t_mapping(t_bytes32,t_struct(ProvenWithdrawal)1142_storage)"
			}
		],
		"types": {
			"t_address": {
				"encoding": "inplace",
				"label": "address",
				"numberOfBytes": "20"
			},
			"t_array(t_uint256)48_storage": {
				"encoding": "inplace",
				"label": "uint256[48]",
				"numberOfBytes": "1536",
				"base": "t_uint256"
			},
			"t_bool": {
				"encoding": "inplace",
				"label": "bool",
				"numberOfBytes": "1"
			},
			"t_bytes32": {
				"encoding": "inplace",
				"label": "bytes32",
				"numberOfBytes": "32"
			},
			"t_mapping(t_bytes32,t_bool)": {
				"encoding": "mapping",
				"key": "t_bytes32",
				"label": "mapping(bytes32 => bool)",
				"numberOfBytes": "32",
				"value": "t_bool"
			},
			"t_mapping(t_bytes32,t_struct(ProvenWithdrawal)1142_storage)": {
				"encoding": "mapping",
				"key": "t_bytes32",
				"label": "mapping(bytes32 => struct OptimismPortal.ProvenWithdrawal)",
				"numberOfBytes": "32",
				"value": "t_struct(ProvenWithdrawal)1142_storage"
			},
			"t_struct(ProvenWithdrawal)1142_storage": {
				"encoding": "inplace",
				"label": "struct OptimismPortal.ProvenWithdrawal",
				"numberOfBytes": "64",
				"members": [
					{
						"astId": 1137,
						"contract": "contracts/L1/OptimismPortal.sol:OptimismPortal",
						"label": "outputRoot",
						"offset": 0,
						"slot": "0",
						"type": "t_bytes32"
					},
					{
						"astId": 1139,
						"contract": "contracts/L1/OptimismPortal.sol:OptimismPortal",
						"label": "timestamp",
						"offset": 0,
						"slot": "1",
						"type": "t_uint128"
					},
					{
						"astId": 1141,
						"contract": "contracts/L1/OptimismPortal.sol:OptimismPortal",
						"label": "l2BlockNumber",
						"offset": 16,
						"slot": "1",
						"type": "t_uint128"
					}
				]
			},
			"t_struct(ResourceParams)1654_storage": {
				"encoding": "inplace",
				"label": "struct ResourceMetering.ResourceParams",
				"numberOfBytes": "32",
				"members": [
					{
						"astId": 1649,
						"contract": "contracts/L1/OptimismPortal.sol:OptimismPortal",
						"label": "prevBaseFee",
						"offset": 0,
						"slot": "0",
						"type": "t_uint128"
					},
					{
						"astId": 1651,
						"contract": "contracts/L1/OptimismPortal.sol:OptimismPortal",
						"label": "prevBoughtGas",
						"offset": 16,
						"slot": "0",
						"type": "t_uint64"
					},
					{
						"astId": 1653,
						"contract": "contracts/L1/OptimismPortal.sol:OptimismPortal",
						"label": "prevBlockNum",
						"offset": 24,
						"slot": "0",
						"type": "t_uint64"
					}
				]
			},
			"t_uint128": {
				"encoding": "inplace",
				"label": "uint128",
				"numberOfBytes": "16"
			},
			"t_uint256": {
				"encoding": "inplace",
				"label": "uint256",
				"numberOfBytes": "32"
			},
			"t_uint64": {
				"encoding": "inplace",
				"label": "uint64",
				"numberOfBytes": "8"
			},
			"t_uint8": {
				"encoding": "inplace",
				"label": "uint8",
				"numberOfBytes": "1"
			}
		}
	}
}