{
	"contractName": "SystemConfig",
	"address": "0x39B88451ECCeddf94bA403B80D0cba782296CF6B",
	"abi": [
		{
			"inputs": [],
			"stateMutability": "nonpayable",
			"type": "constructor"
		},
		{
			"anonymous": false,
			"inputs": [
				{
					"indexed": true,
					"internalType": "uint256",
					"name": "version",
					"type": "uint256"
				},
				{
					"indexed": true,
					"internalType": "enum SystemConfig.UpdateType",
					"name": "updateType",
					"type": "uint8"
				},
				{
					"indexed": false,
					"internalType": "bytes",
					"name": "data",
					"type": "bytes"
				}
			],
			"name": "ConfigUpdate",
			"type": "event"
		},
		{
			"anonymous": false,
			"inputs": [
				{
					"indexed": false,
					"internalType": "uint8",
					"name": "version",
					"type": "uint8"
				}
			],
			"name": "Initialized",
			"type": "event"
		},
		{
			"anonymous": false,
			"inputs": [
				{
					"indexed": true,
					"internalType": "address",
					"name": "previousOwner",
					"type": "address"
				},
				{
					"indexed": true,
					"internalType": "address",
					"name": "newOwner",
					"type": "address"
				}
			],
			"name": "OwnershipTransferred",
			"type": "event"
		},
		{
			"inputs": [],
			"name": "MINIMUM_GAS_LIMIT",
			"outputs": [
				{
					"internalType": "uint64",
					"name": "",
					"type": "uint64"
				}
			],
			"stateMutability": "view",
			"type": "function"
		},
		{
			"inputs": [],
			"name": "VERSION",
			"outputs": [
				{
					"internalType": "uint256",
					"name": "",
					"type": "uint256"
				}
			],
			"stateMutability": "view",
			"type": "function"
		},
		{
			"inputs": [],
			"name": "batcherHash",
			"outputs": [
				{
					"internalType": "bytes32",
					"name": "",
					"type": "bytes32"
				}
			],
			"stateMutability": "view",
			"type": "function"
		},
		{
			"inputs": [],
			"name": "gasLimit",
			"outputs": [
				{
					"internalType": "uint64",
					"name": "",
					"type": "uint64"
				}
			],
			"stateMutability": "view",
			"type": "function"
		},
		{
			"inputs": [
				{
					"internalType": "address",
					"name": "_owner",
					"type": "address"
				},
				{
					"internalType": "uint256",
					"name": "_overhead",
					"type": "uint256"
				},
				{
					"internalType": "uint256",
					"name": "_scalar",
					"type": "uint256"
				},
				{
					"internalType": "bytes32",
					"name": "_batcherHash",
					"type": "bytes32"
				},
				{
					"internalType": "uint64",
					"name": "_gasLimit",
					"type": "uint64"
				}
			],
			"name": "initialize",
			"outputs": [],
			"stateMutability": "nonpayable",
			"type": "function"
		},
		{
			"inputs": [],
			"name": "overhead",
			"outputs": [
				{
					"internalType": "uint256",
					"name": "",
					"type": "uint256"
				}
			],
			"stateMutability": "view",
			"type": "function"
		},
		{
			"inputs": [],
			"name": "owner",
			"outputs": [
				{
					"internalType": "address",
					"name": "",
					"type": "address"
				}
			],
			"stateMutability": "view",
			"type": "function"
		},
		{
			"inputs": [],
			"name": "renounceOwnership",
			"outputs": [],
			"stateMutability": "nonpayable",
			"type": "function"
		},
		{
			"inputs": [],
			"name": "scalar",
			"outputs": [
				{
					"internalType": "uint256",
					"name": "",
					"type": "uint256"
				}
			],
			"stateMutability": "view",
			"type": "function"
		},
		{
			"inputs": [
				{
					"internalType": "bytes32",
					"name": "_batcherHash",
					"type": "bytes32"
				}
			],
			"name": "setBatcherHash",
			"outputs": [],
			"stateMutability": "nonpayable",
			"type": "function"
		},
		{
			"inputs": [
				{
					"internalType": "uint256",
					"name": "_overhead",
					"type": "uint256"
				},
				{
					"internalType": "uint256",
					"name": "_scalar",
					"type": "uint256"
				}
			],
			"name": "setGasConfig",
			"outputs": [],
			"stateMutability": "nonpayable",
			"type": "function"
		},
		{
			"inputs": [
				{
					"internalType": "uint64",
					"name": "_gasLimit",
					"type": "uint64"
				}
			],
			"name": "setGasLimit",
			"outputs": [],
			"stateMutability": "nonpayable",
			"type": "function"
		},
		{
			"inputs": [
				{
					"internalType": "address",
					"name": "newOwner",
					"type": "address"
				}
			],
			"name": "transferOwnership",
			"outputs": [],
			"stateMutability": "nonpayable",
			"type": "function"
		},
		{
			"inputs": [],
			"name": "version",
			"outputs": [
				{
					"internalType": "string",
					"name": "",
					"type": "string"
				}
			],
			"stateMutability": "view",
			"type": "function"
		}
	],
	"transactionHash": "0x56798cbf1538318a64c8a7c94443e9be330b645fba2d5eee95a325e1035d25de",
	"solcInputHash": "effffa15b03d887d1411fcd21e9dda8a",
	"numDeployments": 1,
	"args": [],
	"bytecode": "0x60e060405234801561001057600080fd5b506000608081905260a052600160c05260805160a05160c051610e8161004f600039600061025b01526000610232015260006102090152610e816000f3fe608060405234801561001057600080fd5b50600436106100ea5760003560e01c8063b40a817c1161008c578063f2fde38b11610066578063f2fde38b146101ca578063f45e65d8146101dd578063f68016b7146101e6578063ffa1ad74146101fa57600080fd5b8063b40a817c1461019b578063c9b26f61146101ae578063e81b2c6d146101c157600080fd5b806370bde19c116100c857806370bde19c14610143578063715018a6146101585780638da5cb5b14610160578063935f029e1461018857600080fd5b80630c18c162146100ef57806329477e861461010b57806354fd4d501461012e575b600080fd5b6100f860655481565b6040519081526020015b60405180910390f35b610115627a120081565b60405167ffffffffffffffff9091168152602001610102565b610136610202565b6040516101029190610b97565b610156610151366004610bf2565b6102a5565b005b610156610504565b60335460405173ffffffffffffffffffffffffffffffffffffffff9091168152602001610102565b610156610196366004610c42565b610518565b6101566101a9366004610c64565b6105b1565b6101566101bc366004610c7f565b6106c2565b6100f860675481565b6101566101d8366004610c98565b6106f2565b6100f860665481565b6068546101159067ffffffffffffffff1681565b6100f8600081565b606061022d7f00000000000000000000000000000000000000000000000000000000000000006107a9565b6102567f00000000000000000000000000000000000000000000000000000000000000006107a9565b61027f7f00000000000000000000000000000000000000000000000000000000000000006107a9565b60405160200161029193929190610cb3565b604051602081830303815290604052905090565b600054610100900460ff16158080156102c55750600054600160ff909116105b806102df5750303b1580156102df575060005460ff166001145b610370576040517f08c379a000000000000000000000000000000000000000000000000000000000815260206004820152602e60248201527f496e697469616c697a61626c653a20636f6e747261637420697320616c72656160448201527f647920696e697469616c697a656400000000000000000000000000000000000060648201526084015b60405180910390fd5b600080547fffffffffffffffffffffffffffffffffffffffffffffffffffffffffffffff0016600117905580156103ce57600080547fffffffffffffffffffffffffffffffffffffffffffffffffffffffffffff00ff166101001790555b627a120067ffffffffffffffff83161015610445576040517f08c379a000000000000000000000000000000000000000000000000000000000815260206004820152601f60248201527f53797374656d436f6e6669673a20676173206c696d697420746f6f206c6f77006044820152606401610367565b61044d6108e6565b610456866106f2565b606585905560668490556067839055606880547fffffffffffffffffffffffffffffffffffffffffffffffff00000000000000001667ffffffffffffffff841617905580156104fc57600080547fffffffffffffffffffffffffffffffffffffffffffffffffffffffffffff00ff169055604051600181527f7f26b83ff96e1f2b6a682f133852f6798a09c465da95921460cefb38474024989060200160405180910390a15b505050505050565b61050c610985565b6105166000610a06565b565b610520610985565b606582905560668190556040805160208101849052908101829052600090606001604080517fffffffffffffffffffffffffffffffffffffffffffffffffffffffffffffffe08184030181529190529050600160007f1d2b0bda21d56b8bd12d4f94ebacffdfb35f5e226f84b461103bb8beab6353be836040516105a49190610b97565b60405180910390a3505050565b6105b9610985565b627a120067ffffffffffffffff82161015610630576040517f08c379a000000000000000000000000000000000000000000000000000000000815260206004820152601f60248201527f53797374656d436f6e6669673a20676173206c696d697420746f6f206c6f77006044820152606401610367565b606880547fffffffffffffffffffffffffffffffffffffffffffffffff00000000000000001667ffffffffffffffff831690811790915560408051602080820193909352815180820390930183528101905260025b60007f1d2b0bda21d56b8bd12d4f94ebacffdfb35f5e226f84b461103bb8beab6353be836040516106b69190610b97565b60405180910390a35050565b6106ca610985565b6067819055604080516020808201849052825180830390910181529082019091526000610685565b6106fa610985565b73ffffffffffffffffffffffffffffffffffffffff811661079d576040517f08c379a000000000000000000000000000000000000000000000000000000000815260206004820152602660248201527f4f776e61626c653a206e6577206f776e657220697320746865207a65726f206160448201527f64647265737300000000000000000000000000000000000000000000000000006064820152608401610367565b6107a681610a06565b50565b6060816000036107ec57505060408051808201909152600181527f3000000000000000000000000000000000000000000000000000000000000000602082015290565b8160005b8115610816578061080081610d58565b915061080f9050600a83610dbf565b91506107f0565b60008167ffffffffffffffff81111561083157610831610dd3565b6040519080825280601f01601f19166020018201604052801561085b576020820181803683370190505b5090505b84156108de57610870600183610e02565b915061087d600a86610e19565b610888906030610e2d565b60f81b81838151811061089d5761089d610e45565b60200101907effffffffffffffffffffffffffffffffffffffffffffffffffffffffffffff1916908160001a9053506108d7600a86610dbf565b945061085f565b949350505050565b600054610100900460ff1661097d576040517f08c379a000000000000000000000000000000000000000000000000000000000815260206004820152602b60248201527f496e697469616c697a61626c653a20636f6e7472616374206973206e6f74206960448201527f6e697469616c697a696e670000000000000000000000000000000000000000006064820152608401610367565b610516610a7d565b60335473ffffffffffffffffffffffffffffffffffffffff163314610516576040517f08c379a000000000000000000000000000000000000000000000000000000000815260206004820181905260248201527f4f776e61626c653a2063616c6c6572206973206e6f7420746865206f776e65726044820152606401610367565b6033805473ffffffffffffffffffffffffffffffffffffffff8381167fffffffffffffffffffffffff0000000000000000000000000000000000000000831681179093556040519116919082907f8be0079c531659141344cd1fd0a4f28419497f9722a3daafe3b4186f6b6457e090600090a35050565b600054610100900460ff16610b14576040517f08c379a000000000000000000000000000000000000000000000000000000000815260206004820152602b60248201527f496e697469616c697a61626c653a20636f6e7472616374206973206e6f74206960448201527f6e697469616c697a696e670000000000000000000000000000000000000000006064820152608401610367565b61051633610a06565b60005b83811015610b38578181015183820152602001610b20565b83811115610b47576000848401525b50505050565b60008151808452610b65816020860160208601610b1d565b601f017fffffffffffffffffffffffffffffffffffffffffffffffffffffffffffffffe0169290920160200192915050565b602081526000610baa6020830184610b4d565b9392505050565b803573ffffffffffffffffffffffffffffffffffffffff81168114610bd557600080fd5b919050565b803567ffffffffffffffff81168114610bd557600080fd5b600080600080600060a08688031215610c0a57600080fd5b610c1386610bb1565b9450602086013593506040860135925060608601359150610c3660808701610bda565b90509295509295909350565b60008060408385031215610c5557600080fd5b50508035926020909101359150565b600060208284031215610c7657600080fd5b610baa82610bda565b600060208284031215610c9157600080fd5b5035919050565b600060208284031215610caa57600080fd5b610baa82610bb1565b60008451610cc5818460208901610b1d565b80830190507f2e000000000000000000000000000000000000000000000000000000000000008082528551610d01816001850160208a01610b1d565b60019201918201528351610d1c816002840160208801610b1d565b0160020195945050505050565b7f4e487b7100000000000000000000000000000000000000000000000000000000600052601160045260246000fd5b60007fffffffffffffffffffffffffffffffffffffffffffffffffffffffffffffffff8203610d8957610d89610d29565b5060010190565b7f4e487b7100000000000000000000000000000000000000000000000000000000600052601260045260246000fd5b600082610dce57610dce610d90565b500490565b7f4e487b7100000000000000000000000000000000000000000000000000000000600052604160045260246000fd5b600082821015610e1457610e14610d29565b500390565b600082610e2857610e28610d90565b500690565b60008219821115610e4057610e40610d29565b500190565b7f4e487b7100000000000000000000000000000000000000000000000000000000600052603260045260246000fdfea164736f6c634300080f000a",
	"deployedBytecode": "0x60806040526004361061005e5760003560e01c80635c60da1b116100435780635c60da1b146100be5780638f283970146100f8578063f851a440146101185761006d565b80633659cfe6146100755780634f1ef286146100955761006d565b3661006d5761006b61012d565b005b61006b61012d565b34801561008157600080fd5b5061006b6100903660046106d9565b610224565b6100a86100a33660046106f4565b610296565b6040516100b59190610777565b60405180910390f35b3480156100ca57600080fd5b506100d3610419565b60405173ffffffffffffffffffffffffffffffffffffffff90911681526020016100b5565b34801561010457600080fd5b5061006b6101133660046106d9565b6104b0565b34801561012457600080fd5b506100d3610517565b60006101577f360894a13ba1a3210667c828492db98dca3e2076cc3735a920a3ca505d382bbc5490565b905073ffffffffffffffffffffffffffffffffffffffff8116610201576040517f08c379a000000000000000000000000000000000000000000000000000000000815260206004820152602560248201527f50726f78793a20696d706c656d656e746174696f6e206e6f7420696e6974696160448201527f6c697a656400000000000000000000000000000000000000000000000000000060648201526084015b60405180910390fd5b3660008037600080366000845af43d6000803e8061021e573d6000fd5b503d6000f35b7fb53127684a568b3173ae13b9f8a6016e243e63b6e8ee1178d6a717850b5d61035473ffffffffffffffffffffffffffffffffffffffff163373ffffffffffffffffffffffffffffffffffffffff16148061027d575033155b1561028e5761028b816105a3565b50565b61028b61012d565b60606102c07fb53127684a568b3173ae13b9f8a6016e243e63b6e8ee1178d6a717850b5d61035490565b73ffffffffffffffffffffffffffffffffffffffff163373ffffffffffffffffffffffffffffffffffffffff1614806102f7575033155b1561040a57610305846105a3565b6000808573ffffffffffffffffffffffffffffffffffffffff16858560405161032f9291906107ea565b600060405180830381855af49150503d806000811461036a576040519150601f19603f3d011682016040523d82523d6000602084013e61036f565b606091505b509150915081610401576040517f08c379a000000000000000000000000000000000000000000000000000000000815260206004820152603960248201527f50726f78793a2064656c656761746563616c6c20746f206e657720696d706c6560448201527f6d656e746174696f6e20636f6e7472616374206661696c65640000000000000060648201526084016101f8565b91506104129050565b61041261012d565b9392505050565b60006104437fb53127684a568b3173ae13b9f8a6016e243e63b6e8ee1178d6a717850b5d61035490565b73ffffffffffffffffffffffffffffffffffffffff163373ffffffffffffffffffffffffffffffffffffffff16148061047a575033155b156104a557507f360894a13ba1a3210667c828492db98dca3e2076cc3735a920a3ca505d382bbc5490565b6104ad61012d565b90565b7fb53127684a568b3173ae13b9f8a6016e243e63b6e8ee1178d6a717850b5d61035473ffffffffffffffffffffffffffffffffffffffff163373ffffffffffffffffffffffffffffffffffffffff161480610509575033155b1561028e5761028b8161060b565b60006105417fb53127684a568b3173ae13b9f8a6016e243e63b6e8ee1178d6a717850b5d61035490565b73ffffffffffffffffffffffffffffffffffffffff163373ffffffffffffffffffffffffffffffffffffffff161480610578575033155b156104a557507fb53127684a568b3173ae13b9f8a6016e243e63b6e8ee1178d6a717850b5d61035490565b7f360894a13ba1a3210667c828492db98dca3e2076cc3735a920a3ca505d382bbc81905560405173ffffffffffffffffffffffffffffffffffffffff8216907fbc7cd75a20ee27fd9adebab32041f755214dbc6bffa90cc0225b39da2e5c2d3b90600090a250565b60006106357fb53127684a568b3173ae13b9f8a6016e243e63b6e8ee1178d6a717850b5d61035490565b7fb53127684a568b3173ae13b9f8a6016e243e63b6e8ee1178d6a717850b5d61038390556040805173ffffffffffffffffffffffffffffffffffffffff8084168252851660208201529192507f7e644d79422f17c01e4894b5f4f588d331ebfa28653d42ae832dc59e38c9798f910160405180910390a15050565b803573ffffffffffffffffffffffffffffffffffffffff811681146106d457600080fd5b919050565b6000602082840312156106eb57600080fd5b610412826106b0565b60008060006040848603121561070957600080fd5b610712846106b0565b9250602084013567ffffffffffffffff8082111561072f57600080fd5b818601915086601f83011261074357600080fd5b81358181111561075257600080fd5b87602082850101111561076457600080fd5b6020830194508093505050509250925092565b600060208083528351808285015260005b818110156107a457858101830151858201604001528201610788565b818111156107b6576000604083870101525b50601f017fffffffffffffffffffffffffffffffffffffffffffffffffffffffffffffffe016929092016040019392505050565b818382376000910190815291905056fea26469706673582212200216099710a39ba669241f500daaab663209453b368ac65b50d253a46152ae8364736f6c634300080f0033",
	"devdoc": {
		"events": {
			"ConfigUpdate(uint256,uint8,bytes)": {
				"params": {
					"data": "Encoded update data.",
					"updateType": "Type of update.",
					"version": "SystemConfig version."
				}
			}
		},
		"kind": "dev",
		"methods": {
			"initialize(address,uint256,uint256,bytes32,uint64)": {
				"params": {
					"_batcherHash": "Initial batcher hash.",
					"_gasLimit": "Initial gas limit.",
					"_overhead": "Initial overhead value.",
					"_owner": "Initial owner of the contract.",
					"_scalar": "Initial scalar value."
				}
			},
			"owner()": {
				"details": "Returns the address of the current owner."
			},
			"renounceOwnership()": {
				"details": "Leaves the contract without owner. It will not be possible to call `onlyOwner` functions anymore. Can only be called by the current owner. NOTE: Renouncing ownership will leave the contract without an owner, thereby removing any functionality that is only available to the owner."
			},
			"setBatcherHash(bytes32)": {
				"params": {
					"_batcherHash": "New batcher hash."
				}
			},
			"setGasConfig(uint256,uint256)": {
				"params": {
					"_overhead": "New overhead value.",
					"_scalar": "New scalar value."
				}
			},
			"setGasLimit(uint64)": {
				"params": {
					"_gasLimit": "New gas limit."
				}
			},
			"transferOwnership(address)": {
				"details": "Transfers ownership of the contract to a new account (`newOwner`). Can only be called by the current owner."
			},
			"version()": {
				"returns": {
					"_0": "Semver contract version as a string."
				}
			}
		},
		"title": "SystemConfig",
		"version": 1
	},
	"userdoc": {
		"events": {
			"ConfigUpdate(uint256,uint8,bytes)": {
				"notice": "Emitted when configuration is updated"
			}
		},
		"kind": "user",
		"methods": {
			"MINIMUM_GAS_LIMIT()": {
				"notice": "Minimum gas limit. This should not be lower than the maximum deposit         gas resource limit in the ResourceMetering contract used by OptimismPortal,         to ensure the L2 block always has sufficient gas to process deposits."
			},
			"VERSION()": {
				"notice": "Version identifier, used for upgrades."
			},
			"batcherHash()": {
				"notice": "Identifier for the batcher. For version 1 of this configuration, this is represented         as an address left-padded with zeros to 32 bytes."
			},
			"gasLimit()": {
				"notice": "L2 gas limit."
			},
			"initialize(address,uint256,uint256,bytes32,uint64)": {
				"notice": "Initializer."
			},
			"overhead()": {
				"notice": "Fixed L2 gas overhead."
			},
			"scalar()": {
				"notice": "Dynamic L2 gas overhead."
			},
			"setBatcherHash(bytes32)": {
				"notice": "Updates the batcher hash."
			},
			"setGasConfig(uint256,uint256)": {
				"notice": "Updates gas config."
			},
			"setGasLimit(uint64)": {
				"notice": "Updates the L2 gas limit."
			},
			"version()": {
				"notice": "Returns the full semver contract version."
			}
		},
		"notice": "The SystemConfig contract is used to manage configuration of an Optimism network. All         configuration is stored on L1 and picked up by L2 as part of the derviation of the L2         chain.",
		"version": 1
	},
	"storageLayout": {
		"storage": [
			{
				"astId": 29912,
				"contract": "contracts/L1/SystemConfig.sol:SystemConfig",
				"label": "_initialized",
				"offset": 0,
				"slot": "0",
				"type": "t_uint8"
			},
			{
				"astId": 29915,
				"contract": "contracts/L1/SystemConfig.sol:SystemConfig",
				"label": "_initializing",
				"offset": 1,
				"slot": "0",
				"type": "t_bool"
			},
			{
				"astId": 30526,
				"contract": "contracts/L1/SystemConfig.sol:SystemConfig",
				"label": "__gap",
				"offset": 0,
				"slot": "1",
				"type": "t_array(t_uint256)50_storage"
			},
			{
				"astId": 29784,
				"contract": "contracts/L1/SystemConfig.sol:SystemConfig",
				"label": "_owner",
				"offset": 0,
				"slot": "51",
				"type": "t_address"
			},
			{
				"astId": 29904,
				"contract": "contracts/L1/SystemConfig.sol:SystemConfig",
				"label": "__gap",
				"offset": 0,
				"slot": "52",
				"type": "t_array(t_uint256)49_storage"
			},
			{
				"astId": 1967,
				"contract": "contracts/L1/SystemConfig.sol:SystemConfig",
				"label": "overhead",
				"offset": 0,
				"slot": "101",
				"type": "t_uint256"
			},
			{
				"astId": 1970,
				"contract": "contracts/L1/SystemConfig.sol:SystemConfig",
				"label": "scalar",
				"offset": 0,
				"slot": "102",
				"type": "t_uint256"
			},
			{
				"astId": 1973,
				"contract": "contracts/L1/SystemConfig.sol:SystemConfig",
				"label": "batcherHash",
				"offset": 0,
				"slot": "103",
				"type": "t_bytes32"
			},
			{
				"astId": 1976,
				"contract": "contracts/L1/SystemConfig.sol:SystemConfig",
				"label": "gasLimit",
				"offset": 0,
				"slot": "104",
				"type": "t_uint64"
			}
		],
		"types": {
			"t_address": {
				"encoding": "inplace",
				"label": "address",
				"numberOfBytes": "20"
			},
			"t_array(t_uint256)49_storage": {
				"encoding": "inplace",
				"label": "uint256[49]",
				"numberOfBytes": "1568",
				"base": "t_uint256"
			},
			"t_array(t_uint256)50_storage": {
				"encoding": "inplace",
				"label": "uint256[50]",
				"numberOfBytes": "1600",
				"base": "t_uint256"
			},
			"t_bool": {
				"encoding": "inplace",
				"label": "bool",
				"numberOfBytes": "1"
			},
			"t_bytes32": {
				"encoding": "inplace",
				"label": "bytes32",
				"numberOfBytes": "32"
			},
			"t_uint256": {
				"encoding": "inplace",
				"label": "uint256",
				"numberOfBytes": "32"
			},
			"t_uint64": {
				"encoding": "inplace",
				"label": "uint64",
				"numberOfBytes": "8"
			},
			"t_uint8": {
				"encoding": "inplace",
				"label": "uint8",
				"numberOfBytes": "1"
			}
		}
	}
}